:10000000000002203D65000073650000756500007A
:1000100077650000796500007B6500007165000070
:100020007165000071650000716500007D6500006C
:100030007F65000071650000816500008365000038
:10004000514D0000B5800000896500008B650000FF
:100050008D6500008F6500008D7F0000317E0000FF
:100060009565000097650000996500009B6500009C
:100070009D6500009F650000A1650000A36500006C
:10008000A5650000A7650000A9650000AB6500003C
:1000900075800000AF650000B1650000B365000029
:1000A000B5650000B7650000B9650000BB650000DC
:1000B000BD650000BF650000411900001936000051
:1000C000C5650000C7650000C9650000CB6500007C
:1000D000CD650000CF650000D16500000000000084
:1000E0000000000000000000000000000000000010
:1000F0000000000000000000000000000000000000
:1001000010B5054C237833B9044B13B10448AFF351
:1001100000800123237010BD0008002000000000B3
:10012000B8A2000008B5064B1BB106480649AFF35C
:1001300000800648036813B1054B03B1984708BD1A
:1001400000000000B8A20000040800205C070020A6
:1001500000000000154B002B08BF134B9D46A3F574
:10016000803A00218B460F461348144A121A09F0B0
:100170008AFE0F4B002B00D098470E4B002B00D06F
:1001800098470020002104000D000D48002802D0EF
:100190000C48AFF3008009F047FE2000290008F06A
:1001A00083F809F02DFE00BF0000080000000220C7
:1001B000000000000000000000080020109D012049
:1001C00000000000000000002DE9F047804690B0DC
:1001D00072B6384F384E3B6804465A1C1CBF013378
:1001E0003B609A4600F1300920686168A268E368C4
:1001F00035460FC510344C452E46F5D1D9F80000D0
:10020000D9F80410402203C6B9F808306846002126
:10021000338009F038FE6D46D8F80000D8F8041095
:10022000D8F80820D8F80C302C460FC408F1100874
:10023000C8452546F0D1D8F80410D8F800001F4E64
:1002400003C53368B8F808101D4A2980CDF83A2054
:10025000B3B105F03BFC4FF47F2009F031FED0B183
:1002600005F07AFC174A0023D7F800A0136033602A
:100270004FF0FF30BAF1000F04D110B0BDE8F087A5
:100280004FF0FF300AF1FF333B60002BF5D162B62F
:1002900010B0BDE8F08769464FF47F20402209F096
:1002A00007FE044605F058FC002CDBD12046D7F8A9
:1002B00000A0DFE7CC08012004000020440000205B
:1002C000289BF23D00000020F8B5114B11491B6836
:1002D000D3F83A0009F0FCF9A8B10F4B0F4E1C6897
:1002E00004F1300720686168A268E36835460FC5ED
:1002F0001034BC422E46F5D12068616803C62389BC
:1003000000203380F8BD0548BDE8F840FFF75CBF2A
:1003100044000020289BF23D000000200400002043
:100320002DE9F04F002487B00823032520468DF8DF
:1003300001408DF804408DF800308DF8025003F034
:100340002DFCDFF80CA14FF4706201238DF803003F
:1003500069465046022604928DF80E308DF817300B
:100360008DF805408DF80C408DF815408DF80F5034
:100370008DF816408DF814408DF80D6003F0CCFA1E
:1003800003A9504603F000FB2C4803F04DFF9DF8F5
:10039000043000240133B0FBF3F008F04FFB0646B5
:1003A0009DF80D000F4608F049FB4FF080450246CE
:1003B0000B462046294606F0F5FB80469DF80000D6
:1003C0008946013008F04AFB02460B462046294682
:1003D00006F0E8FB002204460D4640464946184B0D
:1003E00008F0F0F922462B4608F09EFB02460B4629
:1003F0003046394608F0C2FC08F030FEDFF854B051
:10040000CBF80000DBF8000008F028FB00220D4BC1
:1004100008F08AFB0C4A0D4BC2E90001DAF814100F
:10042000802241F00201CAF814101A6083F80723F1
:10043000DBF8000007B0BDE8F08F00BF0002050048
:10044000000028400000D03F580A012000E100E0F1
:1004500000200040500A0120F0B5002487B0074674
:100460000B2320468DF800308DF802408DF80140B6
:1004700003F094FB134D0126032208238DF803009B
:10048000694628468DF80F208DF80D308DF81070D4
:100490008DF804408DF805408DF813408DF80E60FE
:1004A00003F03AFA03A9284603F0E0FA2E626969DC
:1004B000054B8022314369611A6083F8072307B036
:1004C000F0BD00BF0020004000E100E010B500F0EA
:1004D000010304460C210020042205F09DFA04F0DB
:1004E000020300200D21042205F096FA042104EAFB
:1004F00001030A46022005F08FFA04F008030220E7
:1005000005210422BDE8104005F086BA0D4B4FF4DA
:100510008052C1074CBF1A615A610A4B4FF4005216
:1005200081074CBF1A615A61064B102241074CBF2C
:100530009A65DA65034B202201074CBF9A65DA659C
:10054000704700BF0060004070B547F21A639842E0
:1005500082B00C4625D93A4B00221A70394A46F22D
:10056000BD6312789842D2B257D8A4F5FA74A4B2F7
:1005700041F294139C424FF002004FF007014FF0FC
:10058000080208D82E4B1B782BB1012305F044FA42
:10059000012002B070BD002305F03EFA002002B039
:1005A00070BD47F2AF239842D8D8254945F6E97285
:1005B000012390420B70D1D8224E0722002503213F
:1005C00001A88DF8042033708DF805508DF8065081
:1005D00000F016F94FF47A7001F0DCFA092301A853
:1005E00003218DF804308DF805508DF8065000F089
:1005F00007F9154B154AD968184621F00101D96051
:10060000D36823F00103D36003F044F94FF0402096
:1006100004F08AFB00F0B8FAA7E7002AA5D0082169
:100620000A460023032005F0F7F94FF47A7001F031
:10063000B1FA032008210122002305F0EDF994E727
:10064000480000201C08002000100040001400405A
:100650002DE9F0438DB00024012705464FF0030833
:1006600089464FF0402002A98DF808408DF80B40D4
:100670008DF80C408DF80D408DF80E408DF80F4030
:100680008DF810408DF811408DF801408DF8024032
:100690008DF803408DF809708DF800708DF80A8090
:1006A00004F0EAFA224669464FF0402004F024FBA9
:1006B00069463A464FF0402004F01EFB164E2B6868
:1006C0004FF0402E06ADCEF82030CEF824400FCEAD
:1006D0000FC596E80300114E99F8009085E80300D5
:1006E0000723304606A98DF822308DF823408DF877
:1006F00025708DF821708DF82C7003F0E3F83046EA
:100700004A460C2103F0D6F8304603F0BDF8C6F88F
:1007100018800DB0BDE8F083D49E000000100040AA
:10072000F0B5284D89B002AC0FCD0FC495E8030099
:10073000002584E803002B46294605244FF4805702
:100740004FF4E13604200A228DF808408DF8154058
:10075000ADF81650ADF81870049605F05DF901215A
:100760002B460A46042005F057F92B4602200821A3
:10077000012205F051F9144C022009210A2201231B
:1007800005F04AF928460A2201230E2105F044F912
:10079000204602A905F054FA636D012223F4E063B8
:1007A00043F480736365636D082143F0030363655D
:1007B000022013468DE824000A4605F0F7F809B038
:1007C000F0BD00BFEC9E000000E0004003202021AF
:1007D00001F074B800B5084A85B052F8300F01AB8B
:1007E0005168127A03C3054801A91A7005F0A8FAE6
:1007F00005B05DF804FB00BFD49E000000800840F7
:100800002DE9F0478846E2B04B4F4C4E0146424638
:100810008146684609F02EFB39783378A8F1030247
:1008200003EB81035B00414668468DF801208DF89B
:10083000023000F0E3FD0024020A0DF101030DF87F
:10084000080008F1010E03F808200DF1840C23467E
:100850000DF185024FF05D0A7D205E210BE07D2DBC
:1008600003F101030CF804500ABF02F804A001349C
:10087000023473450BDC1DF803507E2DEFD101339C
:1008800073450CF80400115504F10204F3DD4146F0
:10089000484601F08FF92A487E2105F03FFA0DF114
:1008A0008308A0440DF1830515F8011F244805F0C5
:1008B00035FA4545F8D122487E2105F02FFA214B23
:1008C0001B784BB100203278002382F00102327095
:1008D0003B7062B0BDE8F0874FF47A7001F01AFC0B
:1008E0000028EFD00DF18309174DA1444FF0030A02
:1008F000002413487E2105F011FA0DF1830818F841
:10090000011F0F4805F00AFAC845F8D10C487E21AE
:1009100005F004FA2046294600220C4B08F004F9A1
:100920000D46044608F09AFB01F0F4FB0028C9D0FC
:10093000BAF1010ADDD1C6E75200002049000020CB
:1009400000E000402008002000408F400000F83FF9
:1009500030B5847887B00278002344F001046846FB
:1009600004210093ADF804308DF800208DF802408A
:1009700000F044FD9DF80030020A7E2B8DF8040043
:100980008DF8052054D07D2B00F0A3808DF8083021
:1009900001259DF801307E2B56D006AA7D2B2A44D6
:1009A00000F0908002F8103C01359DF802307E2B5B
:1009B00057D006AA7D2B2A4400F0998002F8103CFB
:1009C00001359DF803307E2B58D006AA7D2B2A4492
:1009D00000F0868002F8103C01359DF804307E2B33
:1009E00059D006AA7D2B2A4400F08F8002F8103CD3
:1009F00001359DF805307E2B5AD006AA7D2B2A445E
:100A00007CD002F8103C013543487E2105F086F980
:100A10000DF10704254414F8011F3F4805F07EF945
:100A2000AC42F8D13C487E2105F078F907B030BDE2
:100A30005E238DF809309DF801307D227E2B8DF8E4
:100A400008204FF00205A8D106AB2B447D215E2281
:100A500003F8101C03F80F2C9DF8023002357E2B92
:100A6000A7D106AB2B447D215E2203F8101C03F8AE
:100A70000F2C9DF8033002357E2BA6D106AB2B44FC
:100A80007D215E2203F8101C03F80F2C9DF8043022
:100A900002357E2BA5D106AB2B447D215E2203F8C7
:100AA000101C03F80F2C9DF8053002357E2BA4D1C5
:100AB00006AB2B447D215E22023503F8101C03F89F
:100AC0000F2CA1E75D2102F8103C023502F80F1C43
:100AD0006BE75D228DF808308DF80920022558E774
:100AE0005D2102F8103C023502F80F1C75E75D210C
:100AF00002F8103C023502F80F1C62E75D2102F893
:100B0000103C023502F80F1C7EE75D2102F8103C14
:100B1000023502F80F1C6CE700E00040062970B5B2
:100B200002DD03787E2B01D0002070BD431813F83E
:100B3000013C7E2BF8D11E4601390022012305E03D
:100B4000845401338B4202F101020FDAC45C7D2C24
:100B5000F6D1C5186D785D2D04D05E2D04D1865474
:100B60000133EEE78454FBE79942DDDC941E013A41
:100B7000855C035D214603EB052500F03FFCADB22B
:100B80008542D1D1204670BDF0B50F4D0F4C2B687A
:100B90000122002B267883B0227011DB4FF0160E55
:100BA0000227684604218DF803308DF801208DF866
:100BB00000E08DF80270FFF723FE4FF0FF332B604B
:100BC000267003B0F0BD00BF4C00002020080020BC
:100BD0002DE9F04F4C494D4D0B68B9B00122002B67
:100BE0002E7814AC2A7012DB4FF0160E2046022726
:100BF00004218DF851208DF853308DF850E08DF898
:100C00005270FFF7FDFD404A4FF0FF331360404B39
:100C10002E701B684FF0050909930AAB4FF47A7ADE
:100C200008930125099A042120462260FFF7E8FD78
:100C300000F0BCFF064600F0B3FF33784FF0000C25
:100C40008DF831C00D938DF830500E950F950DF144
:100C5000300E6F46CDE90A01BEE80F000FC74FF016
:100C6000FF36CDF844C0CDF848C010969EE80F007E
:100C700087E80F000899204691E80C00614601F0D2
:100C80000BF94FF002084FF0170B4FF0030CF02355
:100C9000B922062100BB9DF8547020468DF85430CF
:100CA0008DF850B08DF851C08DF852808DF85520D8
:100CB0008DF85370FFF7A4FD04211623E8B12046F8
:100CC0008DF850308DF851508DF852808DF853705A
:100CD000FFF796FD0C4B1E60B9F1010F07D050468F
:100CE00009F1FF3900F056FF4FEA4A0A9AE7064930
:100CF0000868C01739B0BDE8F08F034A3846C017FE
:100D0000176039B0BDE8F08F4C00002020080020AB
:100D1000109F00002DE9F04FB9B000F083FF434B66
:100D20000446D3F800A00D464FF0030B4FF47A7839
:100D30000DF12809042108A8CDF820A0FFF760FDD7
:100D40004FF0000E012302210B228DF831E08DF8C7
:100D500030300F930D910E920CAF6E460FCF0FC631
:100D60004FF0FF33CDF844E0CDF848E0109397E81A
:100D70000F00CDE90A4586E80F00414699E80C00CE
:100D800014A801F089F8D0F10106404638BF0026CA
:100D900008F0B2FA4FF07F5108F006FB08F0F0FCC3
:100DA000BBF1010B804627D0002EC3D09DF85530F3
:100DB000023B032B22D81E4D1E4C2B680122002B18
:100DC0002678227011DB4FF0160E08A802270421A6
:100DD0008DF823308DF821208DF820E08DF82270D9
:100DE000FFF70EFD4FF0FF332B6000202670FFF75A
:100DF000EFFE39B0BDE8F08F002ED7D108210C4CA2
:100E00000A4600234FF0FF350320256004F004FE5E
:100E10004FF47A7000F0BEFE032008210122002367
:100E200004F0FAFD39B0BDE8F08F00BF149F000058
:100E30004C000020200800202DE9F04F97B00378E7
:100E400002AF0F2B044663D0192B43D00D2B03D0D8
:100E50005437BD46BDE8F08FC94BC2791978FA7591
:100E6000B960217CA27C7960617C90F808B0F9605F
:100E7000796890F809A090F80A9090F80B8090F8A3
:100E80000CC0467B857BB976C07BF9683A76BA6838
:100E900087F816B087F815A087F8149087F81380A4
:100EA00087F812C07E743D74F8767976002A00F0D7
:100EB000A180B44901200022087007F110051A70C2
:100EC000B14C2B46543707CB20606160A260BD4611
:100ED000BDE8F08FD0F88030162BB9DD817DA3F10D
:100EE00017050829B4D801A353F821F05B110000BD
:100EF00053110000510E0000510E0000251100009A
:100F0000C310000097100000A91100003B11000061
:100F10004279837903EB0223013B1F2B98D801A16F
:100F200051F823F00B100000A50F0000510E000037
:100F3000510E0000510E0000510E0000510E000035
:100F40005F100000510E0000510E0000510E000015
:100F5000510E0000510E0000510E0000510E000015
:100F6000A50F0000510E0000510E0000510E0000B0
:100F7000510E0000510E0000510E0000510E0000F5
:100F8000510E0000510E0000510E0000510E0000E5
:100F9000510E0000510E0000510E0000510E0000D5
:100FA0004D100000794E7A4C33680122002B94F8E2
:100FB000008007F11005227010DB4FF0160C4FF087
:100FC000020E28460421FB747A7487F810C087F853
:100FD00012E0FFF715FC4FF0FF33336000230822C7
:100FE0002846032184F800803A747B74BB74FFF7B1
:100FF00007FC2DE7BB69D4E9220107F11005009336
:1010000095E80C0001F016FE5AE7604D604C2B6825
:101010000122002B2678227011DB4FF0160C4FF0C6
:10102000020E07F110000421FB747A7487F810C0D7
:1010300087F812E0FFF7E4FB4FF0FF332B605549D0
:10104000554A012326700B70137001E70020FFF74B
:10105000BFFD0028C0F2B38007F014F9F8E64B4D4D
:101060004B4C2B680122002B2678227011DB4FF0AD
:10107000160C4FF0020E07F110000421FB747A7475
:1010800087F810C087F812E0FFF7BAFB4FF0FF3384
:101090002B602670DCE63A2D7FF4DAAE00F1170102
:1010A0002A4607F1100008F0E5FE07F11000FFF7EF
:1010B0008BF83A4B196801F12C003431FFF7C8FA6C
:1010C000C6E6002D7FF4C4AE344B6E46196890B06E
:1010D00004232E4D8DF808300DF109003A2208F056
:1010E000C9FE2B680DF10808002B19DBE94696B004
:1010F00002AC2B491822204608F0BCFE294B414681
:101100001B880DF122001A0A237662763B2208F032
:10111000B1FE2B682046E3705521FFF771FBCD46E9
:10112000B54695E606F07EFE00287FF491AE002DD0
:101130007FF48EAE06F02AFF8AE606F073FE0028E2
:101140007FF486AE0B2D7FF483AE204601F02AFF9C
:101150007EE6002D7FF47CAE7EE72DB908212B467C
:101160000A46032004F058FC4FF47A7000F012FD98
:10117000032008210122002304F04EFC68E600BF92
:10118000490A0120400A0120649A01204C000020F5
:10119000200800205200002049000020D09E0000BE
:1011A000189F00005000002006F03CFE00287FF44D
:1011B0004FAE002D7FF44CAE01F07CFE48E60023DC
:1011C000082207F1100003213A747B74BB74FFF707
:1011D00017FB3DE62DE9F04F644DC5B0002B08BF6D
:1011E0002B4608AF7B621B884FF6FF74A342386220
:1011F000F961BA6200F0B580BD6ADFF878E16A1C77
:10120000D2B2FA622132D2080835DFF86C81FA6076
:10121000AEF800300126BD614AE0D8F80020002376
:1012200007F140059A424FF0010B4FF025004FF0B7
:1012300003014FF0FF3A6C467D6007F1380C35DB57
:101240007D6A87F840B02A887D687864B96487F839
:101250004130FB64D7E904015FFA82FEC7E90E0161
:101260004FEA122B0FCD7D6007F13005BD65C7F841
:1012700050A0C7F85490C7F830E0C7F834B00FC496
:101280007D6895E80F0084E80F0007F160009CE896
:101290000C004FF47A7100F0FFFD002852D197F84E
:1012A0006500003018BF012000284CD00B2E56D00E
:1012B000BD69D7F820E005F4FC736D46ADEB030D76
:1012C0008DF820E00DF12100F969BA6A08F0D2FD2D
:1012D000D8F800304FF00209002B0DF1200BDFF899
:1012E00098A024DBF9686B46A3EBC100854608ACE7
:1012F0001F4918222046BB6008F0BCFDDFF874E0EF
:101300005946BEF80020100A22766076FA6A0DF17E
:101310003A0008F0AFFDF86ADAF8002000F11A018F
:10132000E2702046C9B2FFF76BFABB689D46012EFA
:1013300006F10106AD467FF470AF00F031FCC7E95D
:1013400004016AE748467D6A0A492A884FF6FF7316
:101350000132F4372A800B80BD46BDE8F08F0120B2
:10136000F1E77D6A00232B8046E700BF1E080020BE
:10137000189F0000500000204C000020F8B502F13A
:10138000080303F4FC7300AFADEB030D6B4603F8E9
:10139000010B174D1846541C08F06CFD2B686E4667
:1013A000002B22DBE4B204F1210303F4FC73ADEB68
:1013B000030D68460F49182208F05CFD0E4B0DF135
:1013C0001A001B882246190A8DF818308DF819105A
:1013D000314608F04FFD2B6804F11A018DF80330F7
:1013E0006846C9B2FFF70CFAB546BD46F8BD00BF66
:1013F0004C000020189F00005000002030B489B13C
:10140000094D00234FF6FF72C45C01335440E4B22F
:1014100035F814408B4284EA1222F5D1D24390B2BF
:1014200030BC70470846FBE7309F0000014B18684E
:10143000704700BF24080020014B1868704700BFA8
:10144000600A0120344B2DE9F0431B68334C1B68C4
:10145000266891B003EB863606EB412604463046FB
:101460000D46174604F0FCFC033048D0394606A868
:10147000252208F0FFFCE700294E35B33D1906EBA5
:1014800045054FF0FF314FF00008CDF800800023F4
:1014900000226970A970E970297102A802F070F841
:1014A000DDF808C0039804996B1D05F11002C5F81A
:1014B00005C058609960032582F801803C4406F815
:1014C0001450002011B0BDE8F083BDF81C10BDF829
:1014D0001E203B199DF83C9006EB43030DF1300CA8
:1014E000A3F80110A3F8032083F81190BCE80700CB
:1014F000C3F80500C3F80910C3F80D20DEE7304635
:1015000004F090FD064B04EBC404022203F81420FF
:101510004FF0FF30D6E700BF600A0120240800200A
:10152000640A01202DE9F04F6E4C93B02378804679
:1015300003911546002B6DD1002A6BD16A4A6B4F7F
:1015400002EB482003994FF4007208F093FC3C68CA
:10155000674A0123002C02F80830C0F2BF80DFF890
:101560009CB1644E9A46DBF80010096801EB8431A7
:101570000291002D5CD1604A5D4B08F1FF35424479
:101580000AEB02091D444FEA482A204603E04D4574
:101590000AF5007A14D015F8013F002BF7D0DBF8DC
:1015A000003051491B685144534403EB803004F030
:1015B000FFFE033067D04D4538680AF5007AEAD15E
:1015C0000446039908A8252208F054FCB8F1000F3E
:1015D00035D14FEAC409BDF82410BDF8262009EB27
:1015E00004039DF844A006EB43030EADA3F80110DD
:1015F000A3F8032083F811A007CDC3F80500C3F8B2
:101600000910C3F80D204C44386806F8148013B054
:10161000BDE8F08FFF214FF48042334808F033FCDF
:1016200033480021202208F02EFC0023237085E798
:10163000084604F015FC033025D03C689BE74FEAD0
:10164000C40909EB040506EB45054FF0FF314FF0E7
:10165000000ACDF800A004A86970A970E97029718A
:101660000022002301F08CFFDDF810C005980699D8
:101670004FF00308C5F805C0C5F80900C5F80D10FE
:1016800085F811A0BFE7029804F0CCFC3C684FF04D
:10169000020204EBC403002C06F813201CDB611CBF
:1016A000C1F30A010C4602E0994212D01C4604EB39
:1016B000C40316F81320631C022AC3F30A03F3D0F1
:1016C000002C3C6008DB4FF0000801254FF0200A99
:1016D00049E74FF0FF343C60204698E74FF0FF3079
:1016E00095E700BF53000020480800202408002090
:1016F00028080020640A012027080020600A012031
:1017000030B40F4D2868002812DB0130C0F30A0105
:1017100008460C4C02E099420CD0184600EBC0037E
:1017200014F81320431C022AC3F30A03F3D02860E1
:1017300030BC70474FF0FF30286030BC704700BFAE
:1017400024080020640A01202DE9F04F91B000AF79
:1017500005F032F8052004F0DDFB04F015FBC2684B
:101760000369DFF848919A4228BF1346073323F0F4
:101770000703ADEB030D00264FF0FF330468DFF8DD
:1017800024B17B60E846C9F800003546BB607B6148
:101790000CE002230BF80630D9F8003001355B6904
:1017A000B5F5006F06F112061C4455D0204641469F
:1017B00004F07EFD98F80530FF2BEAD12046414623
:1017C00004F0A2FC824618B101230BF80630E3E7CF
:1017D0004146252207F1180008F04CFB4FF00103A9
:1017E000B8692F493B6007F073FF3B6800B153466F
:1017F00013F0FF0F0BF806300BEB060CCCD1FB8B74
:10180000284905EBC50201EB4202FB600CF1050122
:101810003961B7F81CA0F96807F13003A2F801A0FC
:10182000A2F8031007CB3B69CCF8050059609A6019
:101830007B6901330AD0BB689A4507DC5345ABD1BD
:10184000FB6879688B42A7DD7B6003E0FB68C7F823
:1018500008A07B607D619FE77B69134C5A1C1ABF0F
:10186000581CC0F30A000020034602E082420FD059
:10187000134603EBC3021BF812105A1C0229C2F3D1
:101880000A02F3D0B86844372360BD46BDE8F08F44
:10189000B8684FF0FF3344372360BD46BDE8F08F92
:1018A000F3C83B3F640A012024080020600A01209D
:1018B000014B01221A70704748480020F0B5194BBF
:1018C000012583B0184C07460E46184829461D705E
:1018D00002F0B2FD3946164802F026FE3146204697
:1018E00002F07AFA204602F09FFC124B294618605B
:1018F000204602F0A1FD002301A88DF804308DF8E8
:1019000005308DF8063004F073F90B490B4BC869AC
:101910004FF0804220F00700C861C3F880211A60B0
:1019200003B0F0BD494800206016100000430200DB
:1019300002001800504800200000084000E100E0CC
:1019400010B5094C094B626800201A6004F04CF98C
:101950000223A361064BE2691B6822F00202E261E6
:1019600003B1984710BD00BF000008404C4800205C
:10197000544800202DE9F041064682B000200F4671
:1019800004F032F9254B1C78CCB1254D254A264C64
:1019900002231760A3612968244B01FB06F6A3FB11
:1019A00006210020890904F011F9012004F01CF936
:1019B000E36943F00203E36102B0BDE8F0814FF058
:1019C000010841461A4883F8008002F035FD1948A5
:1019D000032102F0A9FD2021174802F0FDF9164865
:1019E00002F022FC0E4D41462860134802F024FD0F
:1019F00001A88DF804408DF805408DF8064004F0EC
:101A0000F7F809490D4BC8694FF0804220F00700F4
:101A1000C861C3F880211A60B8E700BF49480020B8
:101A2000504800205448002000000840D34D621068
:101A300000430200020018006016100000E100E000
:101A40002DE9F84F494C0023074649480D462370BD
:101A500002F0EAFB474906462846FFF78BFFBD42E6
:101A60004AD8454A04E0136923F00403136130BFE8
:101A70002378002BF7D0414DDFF8148172B62B6824
:101A80003E495A1C36D05A1C0A60237803F0FF00E6
:101A9000E3B1013A2A6002B962B6D8F8000007F053
:101AA0002BFC0446304607F027FC0146204607F091
:101AB0002FFD334907F078FC06F0E2FF0022314B9E
:101AC00006F080FE07F0F2FABDE8F88F2E4C63684E
:101AD000C8F8003004F088F80223A3612B4BE269B8
:101AE0001B6822F00202E26103B198472A68002ACB
:101AF000D3D0CEE71A46C8E7204DDFF89480DFF850
:101B000078A0DFF884901CE0D8F80000013B2B603F
:101B100003B962B607F0F0FB8346304607F0ECFBF2
:101B20000146584607F0F4FC154907F03DFC06F065
:101B3000A7FF0022134B06F045FE07F0B7FA8742D5
:101B40009CD92378002B99D1DAF8103023F00403C4
:101B5000CAF8103030BF72B62B682278591C18BFF3
:101B60000133002AD0D1D9F80400CFE7484800203B
:101B700060161000B118000000ED00E0CC08012054
:101B800000007A440000E03F000008405448002074
:101B90004C4800200146FFF753BF00BFFFF750BF7E
:101BA000014BD3E900017047A05300200048704763
:101BB000A853002030B4054B054C0A4630CC0146F2
:101BC000C3E9004530BC034808F054B9A0530020D5
:101BD00058480020A85300202DE9F047DFF8408046
:101BE00006468A461422D8E90001002307F0E8FDE2
:101BF000D8E9004502EBC20208EB02193146661C27
:101C000009F1080945F10007C8E90067484652464E
:101C1000C9E9224508F02EF9C9F880A0BDE8F0878F
:101C20005848002010B4064CD4E90001D4E9002340
:101C3000994208BF9042F7D15DF8044B704700BF4E
:101C40005848002082B02DE9F04FB1B03AA981E8A0
:101C50000C00419A9DF8F13008920593409A429BFE
:101C60003F999DF8F090DDF8F480DDF8F8C0894EDA
:101C70000792099306910B90DDE93A01D6E900AB92
:101C8000D6E900239B4508BF9245F7D15AEA0B02DB
:101C900000F0F680D6E90045D6E900239D4208BF52
:101CA0009442F7D1002D08BF142C77D2059B002455
:101CB0000025002B78D18D4208BF84423CBF0446EA
:101CC0000D46B9F1000F7AD122462B464FF0FF3076
:101CD0004FF0FF311AF1FF34CDE902014BF1FF352E
:101CE00012EB000A43EB010B089B0CA81844CDE94A
:101CF00000AB0A90E346B9F1000F3ED0DDE90023C6
:101D00009D4208BF94422CBF00230123002B3ED0EC
:101D1000204629461422002307F052FD02EBC2029E
:101D2000120102F1080306EB030ADAE922018D42EF
:101D300008BF84420DD157490CA8114408319022A4
:101D400008F098F8DAE922239D4208BF94422C9FBC
:101D500002D0059900297BD1B8F1000F34DB002FA8
:101D600003DD9DF8303043452ED0DDE90201241813
:101D700045EB0105B9F1000FC0D1DDE90001A94231
:101D800008BFA0422CBF00230123002BC0D16FF05D
:101D9000030031B0BDE8F04F02B07047059B143C22
:101DA00045F1FF35002B86D0B9F1000F57D0A9427D
:101DB00008BFA0426AD38D4208BF844259D3012292
:101DC0000023CDE902238FE7BBF1000F05DB012FD4
:101DD000CBDD9DF831305B45C7D1069900292ADB60
:101DE000022FC2DD9DF8323003F001028A42BCD1DD
:101DF0000798002827DA0899002944DD099A0DF18F
:101E0000300CDDF828A0111F634651F8042F002A7A
:101E100002DBD8788242A8D101335345F5D10B9823
:101E2000614690222C9708F025F8002031B0BDE8DB
:101E3000F04F02B07047079A002ADCDB022F94DDD6
:101E40009DF832300798C3F3400383428DD1D2E727
:101E50006FF0020031B0BDE8F04F02B0704722468B
:101E60002B468B4208BF8242BFF430AF02460B467E
:101E70002CE70122002304460D46CDE9022333E777
:101E80004FF0FF30D2E70DF1300CC8E76FF00100E2
:101E9000CCE700BF5848002082B02DE9F04FB9B020
:101EA00042AC84E80C00DFF86882139010915E4623
:101EB0009DF811419DF810910C94479C459F0D94FD
:101EC000489CDDF818C10E94499C42AA0F944A9C84
:101ED000D2E900011194D8E900ABD8E900239B4571
:101EE00008BF9245F7D15AEA0B037ED0D8E90045E6
:101EF000D8E900239D4208BF9442F7D1002D08BFC6
:101F0000142CC0F0E2800C9A143C45F1FF35002AF5
:101F100040F0E1808D4208BF84423CBF04460D463C
:101F2000B9F1000F40F0E48022462B464FF0FF301D
:101F30004FF0FF311AF1FF34CDE90A014BF1FF35C3
:101F400012EB000A43EB010B0F9B14A81844CDE9D8
:101F500008AB1290E346B9F1000F3CD0DDE908016F
:101F60008D4208BF84422CBF00230123002B3CD0AC
:101F7000204629461422002307F022FC02EBC2026D
:101F8000120102F1080308EB030ADAE922018D428B
:101F900008BF84420DD15E4914A811440831902233
:101FA00007F068FFDAE922239D4208BF9442349E7D
:101FB00001D00C98C8B9002F3DDB002E03DD9DF841
:101FC0005030BB4237D0DDE90A23A41845EB0305A6
:101FD000B9F1000FC2D1DDE90823AB4208BFA2422C
:101FE0002CBF00230123002BC2D1109C002C0BDD41
:101FF00021460A29A8BF0A210120FFF7CFFD241A94
:10200000002C10943FF754AF44AD6C460FCD0FC475
:1020100095E80F0084E80F0042A991E80C0013989E
:10202000FFF710FE003018BF0120404239B0BDE874
:10203000F04F02B07047BBF1000F05DB012EC2DD8F
:102040009DF851309B45BED10D9900292BDB022E06
:10205000B9DD9DF8523003F001028A42B3D10E98E7
:10206000002828DA0F9B002B2CDD1199DDF848C0E1
:10207000081F14A90B4650F8042F002A03DB93F81D
:1020800003E072459FD101336345F4D1B346139801
:102090009022CDF8D0B007F0EDFE002039B0BDE8B9
:1020A000F04F02B070470E9A002ADBDB022E8ADD69
:1020B0009DF852300E98C3F34003984283D10F9B92
:1020C000002BD2DCB34614A9E1E70C9A00240025CA
:1020D000002A3FF41FAFB9F1000F0ED0A94208BF8C
:1020E000A04282D38D4208BF844201D204460D46ED
:1020F00001220023CDE90A2326E722462B468B4204
:1021000008BF8242BFF412AF02460B460EE700BF83
:10211000584800202DE9F04FE1B060AC0C94DDF898
:102120003080634A634BD2E9004568E9524593F831
:1021300000B0CDF83080CDE90A45DFF87C810C9DF8
:10214000002301215FFA8BF44FF0FF3209940D90C8
:10215000297269616B72EB612B62EC602A61AA6182
:10216000C246D8E90067D8E900239F4208BF9642DB
:10217000F7D156EA070057D0D8E90045D8E900233F
:102180009D4208BF9442F7D1002D08BF142CC0F027
:102190008C80143C45F1FF35DDE90A018D4208BF12
:1021A000844205D204460D4602E0013445F10005A3
:1021B000BD4208BFB442204629464FF014024FF0FA
:1021C000000331D207F0FCFA02EBC202120102F165
:1021D000080308EB030BDBE922018D4208BF8442B0
:1021E0000AD10AEB0201083190223CA807F042FE16
:1021F000DBE92223DDF87091B9F1020FD5DD9DF8FE
:10220000F03009999942D0D19DF8F230DB07CCD556
:1022100018AD28463CA99022CDF8709107F02AFE0F
:10222000E87861B0BDE8F08F0D9C002C0BDD2146F5
:102230000A29A8BF0A210120FFF7B0FC0D9C241A2F
:10224000002C0D948DDCDDF83080099D00230122E7
:102250004FF0FF36C8F80C50C8F81C30C8F82030D2
:10226000C8F8186088F80820C8F8142088F80930E1
:10227000C8F8106010AD6C460FCD0FC495E80F0084
:102280000C9DDDE90A89C5E9008984E80F00DDF8C5
:10229000308018AD98E80C002846FFF7D3FC0028E2
:1022A000BED0304661B0BDE8F08F0024002573E752
:1022B000A0530020A85300205848002072B6074AB7
:1022C00007491368581C03D088682BB962B6704759
:1022D0006FF0010388681360704700BFCC080120CD
:1022E000485400202DE9F04F01298BB00691099246
:1022F00040F29D8000240025CDE90045504D4FF669
:10230000FF722A60079292464E494F4A0023DDE948
:1023100000451F46A0F10209984608939B461E46B9
:102320000B601360CDE90445CDE9024500E0BB46F2
:1023300039F8024FA4F5FF457F3D284606F08EFB95
:1023400002460B46DDE9020106F03CFACDE9020146
:1023500005FB05F006F082FB02460B46DDE90401B1
:1023600006F030FACDE90401204606F077FB02467C
:102370000B46DDE9000106F025FA5C4588BFB04652
:1023800088BF27465445CDE9000102D20794A246F2
:102390000896069D0136AE42C9D1079C284D2B4BAD
:1023A0002C602849284A089C099D0F60C2F80080CB
:1023B0001C600698002D3ED006F040FB04460D46FA
:1023C00022462B46DDE9020106F0D8FC06F08EFE1F
:1023D0000999086022462B46DDE9000106F0CEFC93
:1023E00006F084FE1A4B1860DDE9020102460B4636
:1023F00006F09AFB22462B4606F0C0FC0B4602462E
:10240000DDE9040106F0DCF9069A0446501E0D468B
:1024100006F014FB02460B462046294606F0AEFCA9
:1024200004F03CFD06F062FE0BB0BDE8F08F00202A
:102430000BB0BDE8F08F06F001FB04460D46C9E77E
:10244000285400202C540020B80801203C540020BF
:10245000405400202DE9F04F91B02F2900AF0C46D9
:102460000546FA6140F2CA804A00083222F00702AB
:10247000ADEB020D043BADF1020C3B62C7F810C09E
:10248000604BD7F81CC000221B688CF80020D7F8DE
:1024900068C07B61ACF1020CFB6EC7F824C0D7F8B2
:1024A00070C0023B786FB96FACF1020CFB62564B07
:1024B000C7F828C0C7F818D016469246A0F1020BFC
:1024C000A1F1040C07F13008002138690A464FEAEF
:1024D000460E05EBC10131F80E100132A24220F880
:1024E000021F1146F5D121464246B869BB60C7F8C4
:1024F00004C0FFF7F7FE3A6A796942F8040F3A62BE
:1025000001EB8602D1698146FA6007F0FFF8FA68AC
:102510000028D168484618BF4FF0010A07F0F6F8C6
:10252000BB68D7F804C030B1012000FA06F2F869A0
:1025300001780A430270354A354811680268786AA2
:10254000013620F8021F78623248042E0168F86ACA
:1025500008F1040820F8022FF862B86A1A6820F817
:10256000021FB8622C482BF8022F01684CF8041F98
:10257000AAD1BAF1000F04D100204437BD46BDE80E
:10258000F08F264B26491A6843F62040A1FB0251E2
:10259000490801EB4101521A00FB023210327E69F8
:1025A000517D75680029E7D172B61E4892690168AD
:1025B0004E1C12D0DFF84CC01544DCF800609A685D
:1025C0002C44B568944228BF2246AA4294BF9A6020
:1025D0009D600029D0D162B6CEE70A4E154431681D
:1025E0009A682C448D68944228BF22466FF00101FE
:1025F000AA4294BF9A609D600160BDE74FF0FF3032
:10260000BBE700BFD09E00003C5400202C540020AB
:1026100028540020B80801204054002048540020CD
:10262000ABAAAAAACC0801202DE9F04FADF6241DD3
:1026300072B68648864A03685168581C18BF013331
:10264000002900F0D0811468824943F62040A1FBA4
:102650000451490801EB4101611A00FB012202F11A
:102660001007FE69BD6916967E7D1496169EBF2ED4
:1026700000F27081149E002E169E08BF00260F9651
:102680007248013B0360002B2FD162B60F9EBB69DD
:10269000002E2ED13344BB6172B66C480F9C026889
:1026A000531CFB6918BF01321B1BBF2BFB6140F29F
:1026B0005481797D002900F05A81002B40F0578128
:1026C0000123634E7168624C01392068013084E84F
:1026D00003005E4D013A2A6002B962B6002BA7D111
:1026E00000200DF6241DBDE8F08F0F9E2B46002E16
:1026F000D0D0594AB046A2FB0302920AC2EB0212A2
:10270000A3EBC212C2F5F063434538BF9846111DD2
:102710004FEAC80607EBC1013246C8A807F0AAFB7A
:102720000F99414500F24F812AA90DF178090DF169
:1027300080080DF1880B24AE04911CAA26ABCDF8BD
:102740000090CDF80480CDF808B00396C8A80F9982
:10275000FFF780FE824620B99DF87030002B40F0D4
:102760004E81FEF763FE0028C0F220810F9EC8A9AB
:10277000F200C2F5C06201EBC600FF2107F083FB47
:102780000F9806F0B9FD4FF0725106F00DFE06F0FD
:1027900077F904F099F806F061FC0028179040F3EF
:1027A0000581A4B20B940D95C8AC00251194129626
:1027B0001095BB460D9E2948B509A0FB0504C4EB46
:1027C0004414B6EB841426480B9E14BF0022012249
:1027D0000680149E2EB1169E0F98864200F0E98066
:1027E000002613961F491F4E08681199431C336039
:1027F000FEF798FE0028C0F2D880B4F5F06254428B
:1028000054411594139C44B99BF81430002B00F0EC
:10281000B380159E002E00F0B68010484FF00009DE
:10282000A0FB0505FEF702FE0D9A129CC5EB4513B1
:10283000402C94BF12194032A2EB83130C935B46D9
:102840000E908246AB461E4678E000BFCC080120C1
:1028500048540020ABAAAAAA898888888610420812
:10286000BC080120540000209E4807EBC70310F865
:10287000133006F10808022B5BD0032B79D1BBF192
:10288000000F76DB98E807000C9CB9F1000F18BF29
:102890004FF4F8640A9400F053FE044658460D467F
:1028A00006F0DCF8904BD3E90023CDE908230022A1
:1028B0008E4B06F039F9DDE9082306F05FFA02468F
:1028C0000B462046294605F07DFF02460B4631A8FF
:1028D00000F00AFE98E8070034AB83E80700002107
:1028E0004FF4007248A8357D07F0CDFA0A98804968
:1028F0000B9A1FFA8BF48DF8DC50ADF8BE40309087
:102900002E91ADF8BC202EAD48AC0FCD0FC40FCD2D
:102910000FC495E8030044F8040B217048AA384618
:102920000021B9F1000F00F0D280FEF78BFD0BF112
:10293000FF3B09F10109B9F5006F1AD0BAF1000F98
:1029400057460AF1FF3A8FDA0E9D05F5006CC9EB88
:102950000C0789E7C0260F9692E6002B31D1654D12
:102960006968012939D97B7D0BB10123ABE60123CD
:10297000AFE6139CB3460CB9159D25B15E4D0123FE
:102980002B60FEF7BDFE109E0D9C119D013610962A
:10299000403405F50075129E0D941195109C179DFD
:1029A000403EAC4212967FF405AF5F46BB690F9E76
:1029B00070E6179E731E109EF11A4B424B41139303
:1029C00010E77B7D85E6C8EB0102C8A8D200304441
:1029D00007F1200107F04EFAA6E6797D00297FF481
:1029E00070AE0B4675E6454C013B2360002B7FF42F
:1029F00077AE62B600200DF6241DBDE8F08F26A943
:102A000010220DF1ED008DF8EC3007F033FA494655
:102A100008220DF1FD0007F02DFA414608220DF2C3
:102A2000051007F027FA594608220DF20D1007F09D
:102A300021FA314608220DF2151007F01BFA2D4A33
:102A40002C4813682E4A43F62041A2FB0362520829
:102A500002EB42029B1A01FB030303F11006183339
:102A600093E8070000F06CFD1F4B8046B069D3E986
:102A7000002389460792069305F0E0FF079A069B1C
:102A800006F07CF902460B464046494605F09AFEA0
:102A900002460B4618A800F027FD1A4B18981B6831
:102AA00019991A9A184E0DF1E00C4FF0010E002BF7
:102AB00096F80080ACE8070086F800E004DB50469A
:102AC00038A93D22FEF75AFC86F8008049E61146F7
:102AD00048464A46FEF726FD0028BFF628AF37468F
:102AE00064E700BF640A0120580A012000009F40EB
:102AF000F3C83B3F4854002054000020CC0801207C
:102B0000ABAAAAAA4C000020200800200A4B5A6851
:102B100082B1186809490244013AA1FB020149083F
:102B200001EB4101521A43F6204101FB023301221D
:102B300083F82520704700BF48540020ABAAAAAAFA
:102B4000174B30B493E8140016492244013AA1FB14
:102B50000241490801EB4101521A43F6204505FBA9
:102B6000023393F8252010331AB9DA69B2F5F06F01
:102B700001D330BC704799690B4C1144A4FB01543C
:102B8000A40AC4EB0414A1EBC414551C043401467C
:102B9000DD6103EBC400082230BC07F06BB900BF55
:102BA00048540020ABAAAAAA8988888838B51E4C48
:102BB00063681BBB22681D4D1A44A5FB02056D0806
:102BC00005EB4505521B43F6204505FB0245002158
:102BD000581C00220023C5E90623A962E96285F892
:102BE0002510296285F824106060FFF71BF8104B50
:102BF000C5E904011B681B68A36038BD22680B4946
:102C00001A44013AA1FB0201490801EB4101521AA1
:102C100043F6204101FB0242022B4FF0010182F8F2
:102C20002510C7D938BD00BF48540020ABAAAAAAB6
:102C3000D09E000082B02DE9F04F83B00CAC84E848
:102C40000C0072B6DFF858C1534DDCF800305A1C46
:102C50001CBF0133CCF80030D5F804C00193BCF19F
:102C6000000F00F084800024D5F80080DFF838B130
:102C7000A14643F6204A04EB0803ABFB03214908B5
:102C800001EB4101591A0AFB015110310E7DD1E9C6
:102C900000233EB9821A05D4BA4200D314B989463A
:102CA0001746009401346445E5D1B9F1000F5ED0B8
:102CB000DDF800C009F108030CF1010601270DF150
:102CC000300CA6429CE8070083E8070089F81470DE
:102CD0004DD2B04407F1AA37A7FB08135B0803EBFA
:102CE0004303C3EB080843F6204404FB08541034A4
:102CF000237D002B3BD1DFF8A0800FE0D8F8003017
:102D000043F620443344A7FB03C2520802EB4202BD
:102D10009B1A04FB03841034237DC3B90CAB93E8E6
:102D2000070000F00DFC00221C4B05F04BFD024695
:102D30000B460CA800F0D8FB6B6801360DF1300C87
:102D40000834B3429CE8070084E80700D6D8144C46
:102D5000144B24680DF1300C9CE80700019483E8C3
:102D6000070054B903B0BDE8F04F02B070470D4BF7
:102D70000CAC94E8070083E80700019CDFF820C052
:102D8000631ECCF80030002BECD162B603B0BDE876
:102D9000F04F02B0704700BF485400200000F03FE1
:102DA000CC08012030540020ABAAAAAA3A4B2DE946
:102DB000F04F1B68DFF8F0A01B6BDAF800104FF43F
:102DC0007A720B4487B0804602FB03F006F094FA57
:102DD000DFF8D890DFF8D8E0D9F804108346DEF8A1
:102DE0000060D9F80000DEF80470DEF808E0361A5A
:102DF00067EB0107BB00D9F8081043EA9673B200ED
:102E00005D012648C1EB0E0E45EAD2655401A21AB7
:102E100065EB030380FB0E14B61847EB03074FEA7C
:102E2000EE7ECEEBA41EF900F00010EB0E0041EA9E
:102E3000567141EBEE7106F079FA0146584606F0FC
:102E400067FB174906F0B0FA164B04461B88B9E831
:102E50000700CDF806002046CDF80A10CDF80E2068
:102E6000ADF8043006F08CFCDAF80030ADF8120052
:102E7000ADF8143001AC0FCC2488C8F800004046EF
:102E8000A8F81040C8F80410C8F80820C8F80C309A
:102E900007B0BDE8F08F00BFD09E0000D34D621098
:102EA0000000C842BC0801204C0A01203054002018
:102EB000649A01202DE9F04F87B0FEF7B7FA071E9C
:102EC00032DB354CDFF8D8804FF0000A3D46002653
:102ED00005EBC50C14F81C3004EB4C0CD3B92B4695
:102EE0004FF0010B0133C3F30A0303EBC30214F8E1
:102EF00012101D46022904EB420218D0C9B9B2F8DB
:102F00000110BCF80120914213D1BB4211D00BF14A
:102F1000010BE7E70135C5F30A05BD42D8D10AF137
:102F2000010ABAF1020F35D107B0BDE8F08FBB42FC
:102F3000D8D1BAF1000F2BD0624652F8050F9CF899
:102F400002E09CF8013051689CF811C0926843EA95
:102F50000E230DF1080EADF80260ADF80490ADF847
:102F600006B0AEE80700ADF800308DF814C004F0EC
:102F700059FF0028D8D1D8F80030002BD4DB034605
:102F8000694605201522FEF725F9044802F0CCFE1B
:102F90000136C2E7B14699E7640A01200080084083
:102FA0004C0000202DE9F04FADF29C4D00AF07F131
:102FB000480600F117010B2230467E6406F05AFFE6
:102FC00096E8070007F1580303C3110C23F8022BFE
:102FD0001970FEF72BFAD7F84BE0D7F84F30B862EC
:102FE00073454CD900284ADB97F84A304F2103F04B
:102FF000010213F0020F02F1010018BF0246501C3B
:1030000013F0040F18BF0246501C13F0080F18BF2E
:1030100002465200B1FBF2F102FB01F30833DB0878
:103020006846A0EBC300BC6AC7F804D0B7F8486094
:1030300085467E4BBA60F961C7F838D0C7F824E0FE
:103040000125A44604EBC40213F81210601C03EB24
:103050004202DFF8D8B119B9B2F80120B24219D052
:10306000C0F30A0464454FF00005EBD107F15801A5
:1030700006200B22FEF782F97E68B54605E007F1CF
:10308000580106200B22FEF779F907F29C47BD464E
:10309000BDE8F08FBE6AB44200F01782BE68012519
:1030A00076087E637E6B4FF0000AAE40C7F83CE0C6
:1030B000013CC7F82CE0BE61C7F830A07D61FE6A14
:1030C000F86B86425CDC7E694FEA84380AF10109BC
:1030D00001E0A94511D05545FBD8FEF7ADF90068D0
:1030E00007F19801404400EB452003F00DF800285B
:1030F00000F0A6810135A945EDD1D7F8289001341B
:10310000C4F30A0404EBC4034FEA84380BEB430214
:1031100016B94C4500F0BB811BF813300026022B7A
:10312000EDD0002B40F0AA81B2F80110B7F848208A
:10313000914240F0A881FEF77FF9006807F52671FB
:10314000404402F0E1FF0028D9D10346252207F5CB
:10315000267107F170003B6006F08CFEB86F06F038
:10316000CBF84FF0725106F01FF905F089FC03F01F
:10317000ABFB3B6801251E4605F098FF8246A5E79C
:103180004FF000082A4802F0CFFD04F04BFE002863
:1031900040F0F380274B1B68002BC0F2EE80D7F87D
:1031A0004FC00CF1010CB8F1000F00F04381C7F8DB
:1031B00040C06646F86B864294BF4FF0000C4FF05B
:1031C000010CBCF1000F40F0DF80FE69386B8642D5
:1031D00000F0DA808146B8F1000F40F09980FE6976
:1031E000F86BC9EB0609FE6A331A4B4528BF4B46FC
:1031F000002B3B6440F38680386BB969BE6BC146D7
:1032000001FB006CFE6B786A07F19801331A01EB41
:10321000C30303F106083B6B3C62C7F810A0FD60D6
:103220001C46D7F818A0654618E000BF640A0120C4
:10323000008008404C00002012F0020F4FF0020CFA
:1032400009F10109554423D1500736D4130744D45A
:103250003B6C01344B4508F108084ED097F84A20E2
:10326000012612EA0601E7D02846A8F1060102224B
:1032700006F000FE97F84A204FF0030C12F0020F00
:103280004FF002064FF0010109F101095544DBD06E
:103290007A6BBB6B04FB0210A8F10401022203EB62
:1032A0004000C7F800C006F0E5FD97F84A20D7F8BF
:1032B00000C0500731466646C8D57A6BBB6B04FB2D
:1032C0000210A8F1020103EB4000022206F0D2FD39
:1032D00097F84A2031461307BAD57E6B022204FBC9
:1032E0000610BE6B414606EB400006F0C3FD3B6C8A
:1032F00001344B4508F10808B0D13C6AD7F810A05A
:10330000FD683B6C3E6B1E443E63FE6B1E44FE63D9
:10331000D7F84F30FE6B5A1C96427FF4D0AE3E6B0E
:10332000002E2ADDF86BC7F85F30821BBE6BC7F832
:103330005B206D46002E00F0BE80BE68821A06FB40
:1033400002F404F1120323F00703ADEB030D07F1C0
:1033500058010B22684606F08DFD2246B96B0DF12F
:103360000B0006F087FD04F10B02D2B26C46214639
:1033700006200023FDF72EFFAD467E6807F29C472E
:10338000B546BD46BDE8F08F3E6B002E40F383800E
:10339000F86BB96B831B421EC7F85B30C7F85F2020
:1033A0006E46002979D0BA68C31A02FB03F909F105
:1033B000120323F00703ADEB030D07F158010B22B5
:1033C0006846C7F800C006F055FD4A460DF10B00EF
:1033D000B96B06F04FFD09F10B02D7F800C0D2B26D
:1033E000E9464946002306209946C7F800C0FDF784
:1033F000F1FED7F800C0C7F83090B546BCF1000F19
:103400003FF4E9AE3E6C07F15801731EFE6B07F105
:1034100064000B22C7F85B60C7F85F3006F02AFD36
:103420003E6C07F164010B2200230620FE63FDF7CA
:10343000D1FED0E67E6A664528BF66463E64B9E6A0
:10344000B7F8762005F18063B96FC2EB4212D7F866
:103450004FE09201013B02EB831311440EF1010E88
:103460007B62714534BF0A46724640339A4228BF98
:103470001A467E6180460135FA6283E600264FF0E7
:1034800001087E617EE67B614FF001087AE67E618D
:103490004FF0010876E6B146B0E707F164000B2271
:1034A00007F15801C7F800C0814606F0E3FC0B2283
:1034B000D7F800C095E707F164000B2207F1580127
:1034C000044606F0D7FC0B2251E7002D7FF4E6AD51
:1034D000CCE500BF08B5FEF737F9024B01301860A4
:1034E00008BD00BF485400202DE9F0411946804630
:1034F000104616461F4603F077FA06F077F90446A1
:103500000D4605F0E3FA02460B463046394605F013
:1035100057F909A3D3E9002305F006FB03F0F4FAF9
:10352000C8F80040C8F8045005F098FDC8F8080035
:103530004046BDE8F08100BF0000000080842E41BD
:1035400030B585B004AB03E907000198029905F096
:10355000BDFA044603980D4605F080FA06A3D3E9A8
:10356000002305F00BFC02460B462046294605F0D9
:1035700029F905B030BD00BF0000000080842E4155
:1035800010B4019C0260846043605DF8044B704796
:1035900070B51C4B86B001241C701B4D02F0F6FA6E
:1035A0000220002102F0E2FA21462246052001AC69
:1035B00001F020FB0FCD0FC42B68022600254FF42D
:1035C0004051802201A82360ADF8081003928DF8C5
:1035D00004508DF806508DF814508DF815508DF864
:1035E00016508DF8056000F0F7FA0849084B0E6395
:1035F000096808484FF000420560C3F880211A604E
:1036000006B070BDC408012030A1000000100840C1
:1036100000E100E00C0002430849094B012230B4EC
:103620000A709D68074C08480221256002601963F2
:103630005A6B30BC22F002025A637047C508012061
:1036400000100840C00801200C0002432DE9F0479B
:10365000814F0126DFF828E23E609EF8003086B0F8
:1036600081468846144603F0FF05002B78D07B4D39
:1036700000272F7000F000FB4FF47A7000FB08F079
:10368000774B784EA3FB002002233363800905F0BB
:10369000D5F90022744B05F095F805F007FD0146B9
:1036A000384600F0D9FA6C4B32681F60736BC8451E
:1036B00043F00203736300F28C806C4E013C2B7864
:1036C00053B9032CFBD8DFE804F03F3B370202F08C
:1036D0004BF92B78002BF4D0654E664F72B63368E9
:1036E000634A591C01D0013313602A785B49002AD0
:1036F00030D15C4B01220A709C68574802213C6023
:10370000026019635A6B22F002025A6333680BBBE2
:10371000386805F0F1FD584905F0FAFE564905F004
:1037200043FE05F0ADF900224F4B05F04BF805F0D4
:10373000BDFC06B0BDE8F087012002F0B9F8BEE795
:10374000012002F069F8BAE7336923F0040333611A
:1037500030BFB4E7013B3360002BD9D162B6D7E765
:103760008EF8006002F012FA0220294602F0FEF9FB
:1037700031463246052001F03DFADFF808E101AE9E
:10378000BEE80F000FC6DEF800304FF44051802233
:103790004FF0020A01A83360ADF8081003928DF8CB
:1037A00004508DF806508DF814508DF815508DF892
:1037B00016508DF805A000F00FFA2A492F4BC1F8DA
:1037C00030A04FF0004209683D60C3F880211A60C4
:1037D0004DE7274E274FDFF894802B78002B7FF49E
:1037E0007DAF631E032B05D8DFE803F0272F2302EC
:1037F00002F0BAF872B633682A78581C18BF013341
:103800003AB33868013B336003B962B605F074FD22
:10381000194905F07DFE184905F0C6FD05F030F99F
:103820000022114B04F0CEFF05F040FC8145D4D8B6
:1038300054E7012002F03CF8DCE7D8F8103023F020
:103840000403C8F8103030BFD4E7012001F0E4FFD2
:10385000D0E7044A9068D5E70C000243C508012070
:10386000D34D6210001008400000E03F00ED00E082
:10387000CC080120C008012000007A4400E100E0EB
:10388000C408012030A10000036843F00103036075
:10389000704700BF064B10B400214FF08E44032246
:1038A000046043605DF8044BC1608261704700BFF3
:1038B00080000100436823F0F7031A4342EA011134
:1038C0004160704700F10473F0B45B014C7A002250
:1038D0000E7A1A604A68240444EA46448E7ACD7A05
:1038E0000F7844EA026291F80CC04C7842EA06264E
:1038F0000A6946EA0516FF074D7B46EA8C06097DF4
:1039000047EA84741202344342EA0542046042608A
:10391000F0BC1960704700BF70B50E7905460C46C3
:1039200016480EBB00F080FC154B164E0344A6FB58
:103930000323DE0D03D0013E360206F4FE460A23C1
:103940006B606378E1782078A2781B01090443EA70
:103950000063134301F4F81162790B4333430AB156
:1039600043F008032B6070BD00F05EFC3602034894
:1039700000F05AFC06F4FE46E1E700BF4081040077
:103980003F5DC600A5E830A5082343602DE9F0019E
:10399000446B8A7824F0FE4424F4FE04062A60D89E
:1039A000DFE802F02F3B47535F5F04002E4BDB68DC
:1039B00003F07F084FEA08480F7891F801C04D687E
:1039C000CB783F074E7A48EA040447EA0C5745EAA9
:1039D000031344633B430EB143F080738C7A0CB104
:1039E00043F004030C7A0CB143F00203C97A09B125
:1039F00043F0010345EA024213430361BDE8F001CD
:103A00007047194B5E685D6806F4FE4305F07F0859
:103A100048EA03084FEA0848CEE7134B5D685B6845
:103A2000C5F30668C3F3064343EA08284FEA08488B
:103A3000C2E70D4B9E689D6806F4FE4305F07F08C3
:103A400048EA03084FEA0848B6E7074B9D689B68B9
:103A5000C5F30668C3F3064343EA08284FEA08485B
:103A6000AAE74FF00008A7E7B081E00F0223436008
:103A7000F0B4446B8A7824F4FE4424F07F04062AD0
:103A800054D8DFE802F02B353F4953530400294B4B
:103A9000DB6803F07F0C0B784D780F791B0743EA46
:103AA0000553CE788D794CEA040443EA0723446336
:103AB00043EA06130DB143F08073CC790CB143F0A7
:103AC00004034C790CB143F00203097A09B143F0C5
:103AD000010343EA0243C360F0BC7047154B5E68C4
:103AE0005D6806F4FE4305F07F0C4CEA030CD2E758
:103AF000104B5D685B68C5F3066CC3F3064343EA8D
:103B00000C2CC8E70B4B9E689D6806F4FE4305F03D
:103B10007F0C4CEA030CBEE7064B9D689B68C5F31F
:103B2000066CC3F3064343EA0C2CB4E74FF0000CD9
:103B3000B1E700BFB081E00F002230B40A234FF498
:103B4000F81540F2033440F247714360C260124BF3
:103B50000261056042610462C163426B5C6822F4E9
:103B6000FE42596804F4FE4422F07F02224301F031
:103B70007F010A434263446B59685A6801F4FE416D
:103B800024F0FE4302F07F0223F4FE030A4343EADB
:103B90000243436330BC7047B081E00F08B520B1E9
:103BA0000A4B984207D91F2008BD094800F03CFB8A
:103BB0000028F5D108BD074B00F5742000F23F2026
:103BC000A3FB0020800C0138C0B208BD0048E8010A
:103BD0004081040083DE1B4383680178B3FA83F3DA
:103BE00070B4C3F11F0411B1184B01221A60184AB6
:103BF000936BDD0706D4136813F4405F02D0D36BD8
:103C0000DB07FCD4827C124B86885A60C2684578F8
:103C100046EA421245F0080586782A43457C42EA86
:103C20008602007C42EA051242EA803242EA04221D
:103C30004FF0FF3018631A6029B10648034900228B
:103C40001B6802600A6070BC704700BF0007024337
:103C5000001008400C000243064A936BD80706D4B4
:103C6000136813F4405F02D0D36B9B07FCD4014B65
:103C7000D960704700100840024B012100221960F2
:103C80001A6070470C00024308B500F00F03013BB7
:103C9000062B7DD8DFE803F03C4C5B7C7C6A04009B
:103CA000484BDB6A03F46033B3F5803F74D0B3F55F
:103CB000003F6FD0B3F5004F0CBF08230123424AE9
:103CC000904260D0414A904203D13E4B9B6AC3F37D
:103CD0008103032B1AD8DFE803F0130F0B0202F065
:103CE00079FC3B4B3B4A1B6812680133D84008BD46
:103CF000BDE8084002F05ABDBDE8084002F04EBDE4
:103D0000314B98424CD0314B984252D0002008BDE4
:103D10002C4BDB6A03F47053B3F5805F3AD0B3F5F4
:103D2000005F39D0B3F5006F0CBF04230523C6E74D
:103D3000244A936A03F00303022BC0D0032B2DD037
:103D4000012B27D0936ADA030ED50923B7E71D4A62
:103D5000936A03F00C03082B1ED00C2B1ED0042BEF
:103D600018D0936ADB02F0D40123A8E7154B1B6837
:103D700013F080531BD0144AB3F1805F0CBF0823AB
:103D8000012390429ED10F4B9B6A03F00303A0E7EF
:103D9000002394E7032392E7022390E706238EE7AC
:103DA000084B10209B6A33FA00F006D108BD0723A8
:103DB00085E7044B14209B6AF5E7BDE8084002F054
:103DC000F1BC00BF00800C400200180003001A0084
:103DD00078009043A000904338B5C0F30313013B33
:103DE0000C46062B05D8DFE803F00F0404212C3E17
:103DF000050038BDA94B984200F0DC8003F5043380
:103E0000984200F0C08038BD02F054FCA44B41F64B
:103E10007131DA6BD9635B6803F00703042B40D977
:103E2000A04B984240F26981052045E09E4BB1FAD3
:103E300081F49A68C4F11F0422F00F0214439C60BD
:103E400038BD02F037FC964B41F67131DA6BD9631D
:103E50005B6803F00703042B40D9924B984240F271
:103E60005481052045E0914B984200F02F8140F2AB
:103E7000B7808F4B984200F0F9808E4B984240F00B
:103E8000D380894A536DD90740F1BE80864BB4FA7E
:103E900084F49A6EC4F11F0422F0030222439A664E
:103EA00038BD012101FA03F313F0130FB8D07D4B95
:103EB000984240F242810420794B596821F0070171
:103EC000014359600AB10022DA63774B013C1A685A
:103ED00022F4E03242EA84341C6037E0012101FA26
:103EE00003F313F0130FB8D06E4B984240F21581D4
:103EF00004206B4B596821F00701014359600AB156
:103F00000022DA6302F0DAFB6B4BB0FBF4F0DB6CFF
:103F1000C3F307434A2B00F09480792B00F0918083
:103F2000604A482B18BF00229042644D644994BFF8
:103F3000002201225C4B2A600A605A68B4FA84F4B9
:103F4000C4F11F0422F00F0214435C6002F042FB34
:103F5000534B41F67131DA6BD9635B6803F00703A9
:103F6000042B62D94F4B984240F2DF8005204C4B26
:103F7000596821F0070101435960002A3FF439AF25
:103F80000022DA6338BD484A536DD9070BD5464B3A
:103F9000B4FA84F41A6FC4F11F0422F0300242EA2A
:103FA00004121A6738BD136D5B06F0D5136D5B06FE
:103FB000F9D4ECE73C4A536DDD070AD53A4BB4FA25
:103FC00084F41A6FC4F11F0422F0030222431A671B
:103FD00038BD136D5806F1D5136D5806F9D4EDE7C9
:103FE000A3F5043398421ED12F4A536DDD0713D534
:103FF0002D4BB4FA84F49A6EC4F11F0422F0F0023F
:1040000042EA04129A6638BD136D5B077FF53EAF36
:10401000136D5B07F8D439E7136D5807E8D5136DB6
:104020005807F9D4E4E738BD38BD012101FA03F39C
:1040300013F0130F96D01B4B984240F28680042059
:1040400095E7204B17491D699A69DB6905F03F0523
:10405000C3F3031343EA052502F0F0021A4B2A4387
:10406000B2F5017F34BF0A461A465DE70E4A536D2A
:10407000DD070BD50C4BB4FA84F49A6EC4F11B0423
:1040800022F4405242EA04329A6638BD136D580752
:10409000F0D5136D5807F9D4ECE700BF7007140092
:1040A00000000C400048E80100800C40602612002F
:1040B0006000240060062800B081E00F7800904383
:1040C000A0009043D0FF0FE000366E01234A536DED
:1040D000D9070BD5214BB4FA84F49A6EC4F11F04AE
:1040E00022F4706242EA04229A6638BD136D5B07BF
:1040F000F0D5136D5B07F9D4ECE7194B194903446C
:104100008B4294BF03200220D6E6154B1549034489
:104110008B4294BF03200220EBE6114B114903446C
:104120008B428CBF00200120E3E60D4B0D49034478
:104130008B4294BF0320022019E7094B094903442D
:104140008B428CBF00200120B6E6054B0549034495
:104150008B428CBF0020012009E700BF00800C408B
:10416000FFDB0BFFFF23F40000F00F0001380628EF
:104170004ED8DFE800F01424334D4D420400294BA3
:10418000DB6A03F46033B3F5803F43D0B3F5003FFF
:1041900042D0B3F5004F0CBF082001207047214BDF
:1041A000DB6A03F47053B3F5805F35D0B3F5005F7D
:1041B00030D0B3F5006F0CBF042005207047194BB9
:1041C000986A00F00300022825D0032826D0012891
:1041D00022D09B6ADA030ED509207047114A936AF0
:1041E00003F00C03082B15D00C2B17D0042B13D085
:1041F000936ADB02F0D4012070470A4B1B6813F06E
:1042000080530DD0B3F1805F0CBF082001207047B0
:104210000020704702207047032070470620704737
:104220000720704700800C4000F47810B0F5A01F04
:1042300008B500F093800ED8B0F5402F7ED021D87D
:10424000B0F5003F76D0B0F5802F00F0B0800028A8
:104250007BD0002008BDB0F5001F00F09A8039D84F
:10426000B0F5C01F61D0B0F5D01F72D0B0F5B01F4F
:10427000EFD16448FFF708FD634B1B6FC3F30113D5
:10428000D84008BDB0F5801F37D0B0F5901F6ED074
:10429000B0F5602FDDD15C4B5B6903F4E063B3F5EF
:1042A000007F00F09E8040F28A80B3F5C06F00F07E
:1042B000A480B3F5E06F00F09E80B3F5407FC8D1D5
:1042C000524B534AD86C534BB0F1985F34BF1046F1
:1042D000184608BDB0F5181F18D0B0F5201F4FD0F4
:1042E000B0F5101FB5D14C48FFF7CEFC464B9B6E86
:1042F000C3F301330433D84008BD4748FFF7C4FC7B
:10430000414B9B6EC3F30313D84008BD4248FFF7EF
:10431000BBFC3D4B9A6EDB6FC2F30132D04003F021
:1043200007030133B0FBF3F008BD3B48BDE808408C
:10433000FFF7AABCBDE8084002F04CB9324A136846
:1043400013F0805346D0002B83D0BDE8084002F024
:10435000B5B92C48BDE80840FFF796BC2948FFF7DF
:1043600093FC294B1B6F03F00303D84008BD2A4878
:10437000FFF78AFC244B9B6EC3F30323D84008BD90
:104380002548FFF781FC204B9B6E03F00303D840C8
:1043900008BD2248FFF7E8FE032817D00828D4D02C
:1043A00002287FF456AFBDE8084002F0FFB902F0E2
:1043B00085F9154B9B6803F00F03D84008BDF3B196
:1043C000B3F5807F7FF445AF154808BDBDE80840D0
:1043D00002F0E4B9536903F4E063B3F5007F7FF4BE
:1043E00062AF0A4B0F4AD86C0F4BB0F1985F34BFE5
:1043F0001046184608BD0D4808BD0D4808BD0D48BB
:1044000008BD00BF03001A0000800C40B081E00F1F
:1044100040420F00804F12000200180007232000C6
:10442000C0D8A700C0CF6A0040B56400406F40010B
:10443000003FAB01809FD50070B5C0F30323013B63
:1044400082B00446092B11D8DFE803F022192410AA
:10445000101D05101020274A1020274DC4F30434E6
:104460006B6DDB0704D522449200116002B070BD71
:104470002B6D1842F7D02B6D1842F9D1F3E71F4A84
:10448000C4F30434EFE71E4A0120E6E71D4AF7E7CC
:104490001D4AF5E7019102F09DF81C4B0199DA6C79
:1044A000C2F307424A2A0FD0792A0DD0184B482A66
:1044B00018BF0023174A9842174D94BF00230123C9
:1044C0001360164A2B60DBE7154A114D1669936994
:1044D000D26906F03F06C2F3031242EA062603F051
:1044E000F003104A3343B3F5017F34BF2B46134624
:1044F000E0E700BF0003E41000800C402002E4105D
:10450000C002E410C003E4104000E410B081E00FEA
:104510000048E80178009043A00090430002E410B6
:10452000D0FF0FE000366E0138B500F00F04631EB7
:10453000062B52D8DFE803F07A626251515D5600D3
:10454000012202FA03F313F0130F00F09680A84B38
:10455000984240F23C820420A64B5A6822F007029F
:1045600002435A6009B10022DA63A34BA3485C629C
:10457000FFF75AFEA24BDB6CC3F307434A2B00F054
:104580008881792B00F085819949482B18BF00213B
:1045900088429C4A9C4B94BF002001201060186008
:1045A00001F0FAF902F016F8924B41F67131DA6B2C
:1045B000D9635B6803F00703042B40F25D818C4BE9
:1045C000984240F2EC8105208A4B596821F007019E
:1045D000014359600AB10022DA638A4A8A4B1268A1
:1045E0001B6838BD03294ED0082973D002295AD040
:1045F00038BD072923D0082966D038BD01390829DC
:10460000F6D801A252F821F0CB470000D3470000B2
:1046100021480000F1450000F14500003B48000042
:10462000F1450000F1450000A947000002390329C7
:10463000DED8DFE811F00A00B50056008D006E4BA1
:104640001A6822F080521A60C7E7704A04244FF4B7
:10465000807369490B621368002BFCD001F09CF950
:1046600002F028F8634B41F67132D96BDA635B686C
:1046700003F00703042B7FF663AF5D4B984240F2D3
:104680009681052068E75C4B4021614A19621368F6
:10469000002BFCD001F080F9574A60235362D36AA3
:1046A0009903FCD599E7544B4FF48071574A19622E
:1046B0001368002BFCD001F06FF94F4A402353627E
:1046C000D36AD803FCD588E74B4B1A6842F0805276
:1046D0001A6082E7484A20235362D36A1B04FCD540
:1046E0007BE7474BDB6CC3F307434A2B00F00481A5
:1046F000792B00F001814748482B18BF0120404B1F
:10470000DB6CC3F307434A2B00F0E280792B00F007
:10471000DF80374A482B0CBF1346002383423A4AB6
:1047200038492CBF002301230B60136002F02EF8E0
:104730002F4B02249842304B1A6896BF22F0600239
:1047400042F0600242F020021A60334A042380E7FC
:104750002B4BDB6CC3F307434A2B00F0F680792B1D
:1047600000F0F3802B48482B18BF0120244BDB6C52
:10477000C3F307434A2B00F0D480792B00F0D1809B
:104780001B4A482B18BF002290421E4B1E4994BF63
:104790000022012201241A600A6023461F4A58E7BA
:1047A0001B4A0324402354E74FF480114FF4803315
:1047B0000022022C00F082800F4A936A23F48013B7
:1047C00023F00C030B43936207E700210B460A46D4
:1047D000EFE7094B4FF480710C4A19621368002B04
:1047E000FCD001F0D9F8082100230222E1E700BF44
:1047F0000048E80100000C4000800C40004302002B
:10480000B081E00F78009043A0009043A40590434E
:104810009C0590430148E8018C0590438405904332
:104820006F4B40216F4A19621368002BFCD001F0D6
:10483000B3F8042100230122BBE701F0CBFE6A4B51
:10484000DB6CC3F307434A2B00F09480792B00F014
:104850009180664D482B18BF0025A8426449654BDE
:10486000654A94BF002001200125086018600C21D2
:104870001560002303229CE7012101FA03F313F0E2
:10488000130F3FF49CAE594B984240F2988004209D
:104890009AE65A4B554A1C699969DB6904F03F0452
:1048A000C3F3031343EA042401F0F001544B214302
:1048B000B1F5017F34BF1146194669E648481343F4
:1048C000816A21F4803121F003011943816284E679
:1048D0004A4A464B14699169D26904F03F04C2F315
:1048E000031242EA042401F0F001454A2143B1F5E4
:1048F000017F28BF134611E7404B424A1869996966
:10490000DB6900F03F00C3F3031343EA002001F02A
:10491000F0013D4B0843B0F5017F34BF1046184607
:10492000EDE6364B314A1C699969DB6904F03F04B6
:10493000C3F3031343EA042401F0F001304B214395
:10494000B1F5017F28BF1A461EE72C4B2D4A186986
:104950009969DB6900F03F00C3F3031343EA0020C9
:1049600001F0F001284B0843B0F5017F34BF104639
:104970001846FBE6214B1D4A1D699969DB6905F064
:104980003F05C3F3031343EA052501F0F0011C4B77
:104990000D43B5F5017F34BF15461D465DE71B4B42
:1049A0001B4903448B4294BF032002200CE6174BA3
:1049B000174A0344934294BF03200220CCE5134BD3
:1049C000134903448B428CBF00200120FCE50F4BB0
:1049D0000F4A034493428CBF00200120BCE500BF76
:1049E00000800C409C059043B081E00F0048E80136
:1049F00078009043A000904310089043D0FF0FE050
:104A000000366E010148E80101366E01FFDB0BFF45
:104A1000FF23F40038B50446052804D8DFE800F089
:104A2000272B3035390438BD684B1D6BC5F307257E
:104A3000674AD26A02F47052B2F5805F64D0B2F570
:104A4000005F61D0B2F5006F5ED001F033FE614BC4
:104A500041F67132D96BDA635B6803F00703042B0C
:104A60001BD95D4B984240F2A88005201FE0574BB0
:104A7000DD6AEDB2DCE7554BDD6AC5F30725D7E704
:104A8000524BDD6AC5F30745D2E7504BDD6A2D0E68
:104A9000CEE74E4B1D6BEDB2CAE7012202FA03F3DB
:104AA00013F0130FDDD04C4B98426ED90420494BC4
:104AB0005A6822F0070202435A6009B10022DA6301
:104AC000434AD36823F4FF6323F0070343EA042433
:104AD0002543D56001F07EFD3E4B41F67131DA6B26
:104AE000D9635B6803F00703042B43D93A4B984220
:104AF0005BD90520374B596821F007010143596004
:104B000062B10022DA6309E0314AD36823F4FF631B
:104B100023F0070343EA04242543D56001F05AFD3E
:104B20002A4BDB6CC3F307434A2B0ED0792B0CD0F6
:104B30002949482B18BF00218842284A284B94BF96
:104B4000002001201060186038BD264B224A1969E8
:104B50009C69DB6901F03F01C3F3031343EA0121C0
:104B600004F0F004204B2143B1F5017F34BF11461E
:104B70001946E1E7012101FA03F313F0130FB5D051
:104B8000154B984209D90420B4E7184B184A03443E
:104B900093428CBF0020012089E7144B1449034441
:104BA0008B428CBF00200120A4E7104B1049034426
:104BB0008B4294BF032002209CE70C4B0C4A034419
:104BC000934294BF0320022071E700BFB081E00F41
:104BD00000800C4000000C400048E8017800904341
:104BE000A0009043D0FF0FE000366E01FFDB0BFF0B
:104BF000FF23F40010B404282ED8DFE800F0271BB0
:104C0000031F230016480823042469B1154B1C62B6
:104C10001AB95DF8044B00F0BFBE0368002BF8D151
:104C20000368002BF9D0F4E70E4A5DF8044B1362D9
:104C300000F0B2BE0C4880234024E6E70B48022374
:104C40000124E2E70A4820231024DEE709484FF454
:104C500000734FF48074D8E75DF8044B704700BFD1
:104C60008C05904300800C409C0590438405904344
:104C700094059043A405904330B400F104744D783A
:104C800022460C320834002364015201012D2360B6
:104C900013602AD0022D24D0164B9B69C3620B7877
:104CA0008A781B050C7943EA0525CB7845EA02157D
:104CB00024048A7945EA830304F4E02423430AB1F7
:104CC00043F08003CA790AB143F040030A7A0AB17B
:104CD00043F002034A7A0AB143F00103036030BC97
:104CE0007047044B1B6AC362D9E7024BDB69C3629E
:104CF000D5E700BFB081E00F10B4CB780C781B0172
:104D00000CB143F001034C780CB143F004038978F3
:104D100009B143F002031AB983605DF8044B704790
:104D2000C3605DF8044B7047002310B43321102496
:104D3000064A8360C36004600361C161926944F202
:104D40004773C2625DF8044B03637047B081E00FA4
:104D50001C4B1D4A41F20C0112685858996B2DE901
:104D6000F0470240194F984602EA010422EA010A7C
:104D70004FF00209FCB100250126E30717D506FA1A
:104D800005F2D8F808303A6003EB0513DB682846D3
:104D90006BB11A7AD3F800C0111C82F0010218BF5F
:104DA00001211A72BCF1000F01D05A68E047640873
:104DB00005F10105E1D1B9F1010901D05446D9E766
:104DC000BDE8F08700200C4000300C4008300C405B
:104DD000F0B41C4E0401B768049D274469BBF66813
:104DE0003444FE6806B1317243B1A668C6F38166E9
:104DF000032E1CBF05FA06F69B1923603AB1A3687F
:104E00009B0F032B1CBF05FA03F3D218626001232A
:104E100003FA00F00B4BD86189B91863A368094AFB
:104E200023F47F5323F0370343F0020343EA0515CD
:104E3000A5609062F0BC506170473C46D1E7586372
:104E4000ECE700BF00200C40124B30B49C688A682D
:104E500004EB00140D78E2600124844075B19C637A
:104E60004D684B780B4A00F5886142F821503BB9F8
:104E7000094A30BC0244920013607047DC63EFE7DC
:104E8000054B41F2080503449B0001215451196070
:104E900030BC704700200C406080E110F0B40D4B36
:104EA000A9B9D9681578937857781679AD07D47869
:104EB00045EA037545EA8765B20445EA036342EAB9
:104EC000843201EB001013438360F0BC7047996893
:104ED000E8E700BF00200C402DE9F04F012183B02E
:104EE00006462C48FFF7A8FA72682B4B2B4D01920F
:104EF0000124002240F6FF71DFF8A4B0C5F880401D
:104F000041F20C005A6003F58859D96141F2080A50
:104F1000596241F20418D96241F2081C596341F206
:104F20000C17D96341F21011DC641A5043F80AB02F
:104F3000C9F8002041F2141B43F8082041F2181A66
:104F400043F80C2041F21C19DA5103F589585A50E4
:104F500041F2241C41F2281741F22C1143F80B2096
:104F600043F80A2043F80920C8F8002043F80C2031
:104F7000DA515A50019A4FF0004BC5F880412C602D
:104F800043F800B09A603278520122435A6003B06D
:104F9000BDE8F08F0003020000200C4000E100E0BB
:104FA000FF0F00802DE9F00FAB4B82B01B684778F4
:104FB0000193019AC36842F08044002B00F08F8374
:104FC0000025DFF8B0B2DFF8B0A2DFF8B092DFF86A
:104FD0009882DFF8ACC2294603F00202002A03F0EF
:104FE000040603F0080218BF022118BF5D46002E18
:104FF00018BF042118BF5546002A18BF4D4618BFD8
:10500000082103F010066A01002E02F184426FEAC3
:10501000010602F1100218BF6FF0100618BF6246B9
:1050200018BF454618BF102133401760D4D1C2685D
:1050300090F802A0002A00F052830146DFF834B253
:10504000DFF83492DFF83482DFF81CC2834F504619
:105050001D468A4602F00201002902F0040602F011
:10506000080118BF022518BF5B46002E18BF042593
:1050700018BF4B46002918BF434618BF082502F049
:1050800010065901002E01F184416FEA050601F175
:105090000C0118BF6FF0100618BF394618BF6346E1
:1050A00018BF102532400860D4D1DAF80C305046D1
:1050B0009AF803A0002B00F012830146DFF8B4B188
:1050C000DFF8B491DFF8B481DFF89CC1644F50463B
:1050D00015468A4603F00201002903F0040603F096
:1050E000080118BF022518BF5A46002E18BF042514
:1050F00018BF4A46002918BF424618BF082503F0CA
:1051000010065101002E01F184416FEA050601F1FC
:10511000080118BF6FF0100618BF394618BF624665
:1051200018BF102533400860D4D1DAF80C2050465F
:105130009AF804A0002A00F0D2820146DFF834B1C8
:10514000DFF83491DFF83481DFF81CC1454F504659
:105150001D468A4602F00201002902F0040602F010
:10516000080118BF022518BF5B46002E18BF042592
:1051700018BF4B46002918BF434618BF082502F048
:1051800010065901002E01F184416FEA050601F174
:10519000040118BF6FF0100618BF394618BF6346E8
:1051A00018BF102532400860D4D1DAF80C305046D0
:1051B0009AF80590002B00F092820146DFF8B4A027
:1051C000DFF8B480DFF8B4C0274F284E48461546B4
:1051D000894603F00201002903F0040B03F00801E3
:1051E00018BF022518BF5246BBF1000F18BF042597
:1051F00018BF4246002918BF624618BF082503F0B1
:105200001001002902F1047B6FEA05014FEA4B1BF4
:1052100018BF6FF0100118BFB34618BF3A4618BF49
:1052200010250B40CBF80000D3D1D9F80C2048460C
:1052300099F806A0002A00F052820146DFF834B047
:10524000DFF83490DFF83480DFF81CC0084F504698
:105250001D468A4616E000BF008000408C081042C0
:1052600088081042840810424480004080081042A0
:105270009408104210800040248000403480004098
:105280009008104202F00201002902F0040602F028
:10529000080118BF022518BF5B46002E18BF042561
:1052A00018BF4B46002918BF434618BF082502F017
:1052B00010065901002E01F184416FEA050601F143
:1052C000140118BF6FF0100618BF394618BF6346A7
:1052D00018BF102532400860D4D1DAF80C3050469F
:1052E00013F0020100F0F881019DB74C9AF80020FC
:1052F0002C409AF8096014439AF80A5044F080440C
:1053000044EA06449AF8077044EA45449AF808606B
:105310009AF84C5044EA076444EA0634002D40F001
:10532000D88113F0040816D0457A867AAD0490F837
:1053300007C045EAC646077AA44D46EA4C6646EAE7
:105340004737254090F84C6047EA050444EA820458
:10535000002E40F0BB8113F0080C15D0457A877AF7
:105360002D05C67945EA4755077A45EA8666984D80
:1053700046EA873790F84C6047EA0217254047EA2B
:105380000504002E40F09F8113F0100315D0457ADC
:10539000877AAD05C67945EAC755077A45EAC666F4
:1053A0008C4D46EAC73790F84C6047EA8217254093
:1053B00047EA0504002E40F08381856A466A2F047F
:1053C000056A47EA0626354339B1834FBE6826F0A1
:1053D000031626F47C562E43BE60B8F1000F07D0AA
:1053E0007D4FFE6926F0031626F47C562E43FE619F
:1053F000BCF1000F07D0784FFE6A26F0031626F4A2
:105400007C562E43FE623BB1734FFE6B26F00316B3
:1054100026F47C563543FD6390F82C7090F82D608F
:1054200090F82E5049B1DFF8ECA1DFF8EC916B4910
:10543000CAF80070C9F800600D60B8F1000F09D01B
:10544000DFF8D891DFF8D8816549C9F80070C8F84D
:1054500000600D60BCF1000F09D0DFF8C881DFF8F3
:10546000C8C16049C8F80070CCF800600D603BB15D
:10547000DFF8B8C15C495D4BCCF800700E601D6070
:10548000816B466BC3680904056B41EA062113F082
:10549000020C41EA050107D04F4EF56825F00315CF
:1054A00025F47C550D43F56013F0040707D04A4EF0
:1054B000356A25F0031525F47C550D43356213F04C
:1054C00008060AD0DFF81081D8F8305025F003150F
:1054D00025F47C550D43C8F8305013F010030AD062
:1054E000DFF8F480D8F8405025F0031525F47C55FA
:1054F0002943C8F8401090F83C5090F83D10BCF19A
:10550000000F07D0DFF82881DFF828C1C8F8005065
:10551000CCF800102FB1DFF820C1354FCCF8005087
:1055200039601EB1334F344E3D6031601BB1334E94
:10553000334B35601960C3688569416913F0020C0B
:1055400041EA052107D0244E756825F4407525F001
:1055500003050D43756013F0040707D01E4EB569AF
:1055600025F4407525F003050D43B56113F00806D9
:105570000AD0DFF86480D8F8285025F4407525F06B
:1055800003050D43C8F8285013F010030AD0DFF8C4
:105590004880D8F8385025F4407525F00305294394
:1055A000C8F83810017FBCF1000F01D0154D2960FB
:1055B0000FB1154D29600EB1144D29600BB1144B7C
:1055C0001960054B1C6039E0FCEEFCFEF3DDF3FDD9
:1055D000CFBBCFFB3F773FF7008000407001104208
:1055E000F0031042F0051042F4071042F007104299
:1055F0007004104274061042700610427408104283
:1056000070081042F0001042700310427005104202
:10561000700710427801104274011042F8031042E2
:10562000F4031042F8051042F4051042F807104246
:10563000F4011042F001104274041042032A06D80B
:10564000DFE802F0023A3A02284B00221A60284BA7
:10565000026C5969456C21F440310A435A615A6918
:10566000816C22F4F8022A435A615A6914F0706F6F
:1056700022F0E04242EA01025A6102D0C2791D4B97
:105680001A601D4B01221A600369980744BF1B4929
:105690000A60590702D51A4A012111601A0702D57A
:1056A000184A01211160DB0602D5174B01221A604E
:1056B00002B0BDE8F00F70470C4B01221A60C6E73C
:1056C00044F4006479E644F480645DE644F40074D4
:1056D00041E644F4807424E69AF8002021E6002193
:1056E00088460B468C4602784EE600BF9402104274
:1056F000008000409C02104280021042840210424E
:10570000880210428C021042900210421D4B023857
:105710001B68002B07DB0E2803D81B4B53F8200017
:105720007047002070470E28F5D801A353F820F0E9
:1057300073570000175700006D57000017570000FF
:1057400017570000175700007F5700001757000039
:105750001757000017570000175700001757000091
:105760001757000017570000795700004FF01040FE
:1057700070474FF0004070474FF0304070474FF097
:10578000204070470080004044A10000204B45F6B7
:105790000E01204A10B4D3F88440C3F88410126874
:1057A00040F2551102F470501140B0F5805F04F0E2
:1057B0000104196202F0010221D0B0F5005F16D099
:1057C000B0F5006F0BD012B9114B02221A621CB156
:1057D0000F4B0022C3F884205DF8044B7047184635
:1057E000C36A0B491B07FBD502234B62EBE7184644
:1057F000C36A07499B05FBD504234B62E3E71846C0
:10580000C36A03491B06FBD503234B62DBE700BFDA
:1058100000800C40C80801201F4B2049DB6A204A49
:1058200070B40B6016691F4B46F0040616611E69C2
:105830009A69DB6906F03F06C3F3031343EA0623C4
:1058400002F0F0021343B3F5827F0BD3B3F5017F6F
:1058500008D0002230BFA2B9C0B90B685B0518D5CB
:1058600070BC7047104B114C1D6801222C40C3F8CE
:1058700080405D6825F04605C3F8845030BF002A9B
:10588000EAD0094B1C605D600028E6D070BCFFF7D1
:105890007DBF70BC00F09EBE00800C40C808012097
:1058A00000ED00E0D0FF0FE000E100E09CF1FD0022
:1058B000274B2849DA6AF0B40A60D3F884204FF401
:1058C0002075D20748BF002245F60E06C3F8846053
:1058D0001D6248BFC3F884201F4A204B156945F05C
:1058E000040515611D699A69DB6905F03F05C3F37D
:1058F000031343EA052302F0F0021343B3F5827F5A
:105900000BD3B3F5017F08D0002230BFA2B9C0B9D4
:105910000B685B0518D5F0BC7047114B114C1D6826
:1059200001222C40C3F880405F6827F04607C3F887
:10593000847030BF002AEAD0094B1C605F600028E9
:10594000E6D0F0BCFFF722BFF0BC00F043BE00BFC2
:1059500000800C40C808012000ED00E0D0FF0FE0FF
:1059600000E100E09CF1FD000A4B4AF6E8501A689D
:10597000196822F00C0242F0080241F00C01986014
:105980001A6019601A6019601A6019601A6019604B
:105990001A60704700600C40024A034BD26A1A60DA
:1059A000704700BF00800C40C8080120F0B40729F0
:1059B0009DF810609DF814401AD9A1F108029200D8
:1059C000072595409040104A176827EA05052843A7
:1059D000106001258D400D4A0D480A449200136065
:1059E000C2F88060C0F81C51C2F80041F0BC70479A
:1059F0008A00072595409040064A176827EA050562
:105A000028431060E5E700BF0461004040088310B0
:105A10000060004000610040F0B4B2BBC400072940
:105A20001DD88D004FF00F0C0CFA05FC02FA05F79B
:105A30002518AD0005F1804505F5C0456E6826EADC
:105A40000C063E436E6042B98BBB012303FA01F1A1
:105A500020441D4B800003445960F0BC704701F1A5
:105A60008045083DAD004FF00F0C0CFA05FC02FA22
:105A700005F72518AD0005F1804505F5C045AE6870
:105A800026EA0C063E43AE60DDE701268E40C400E8
:105A90003BB12518AD0005F1804505F5C0452E61E7
:105AA000BDE72718084DBF003D446E60B7E70123EE
:105AB00003FA01F12044800000F1804000F5C0406D
:105AC0000161F0BC704700BF1060004010B51E4C73
:105AD00041F67133E363A36823F00103A36000F090
