:10000000000002203130000067300000693000003D
:100010006B3000006D3000006F3000006530000074
:100020006530000065300000653000007130000070
:10003000733000006530000075300000773000003C
:1000400019870000B90800007D3000007F300000F3
:10005000813000008330000085070000D9050000D2
:10006000893000008B3000008D3000008F300000A0
:100070009130000093300000953000009730000070
:10008000993000009B3000009D3000009F30000040
:10009000A1080000A3300000A5300000A730000038
:1000A000A9300000AB300000AD300000AF300000E0
:1000B000B1300000B3300000D5550000417F000092
:1000C000B9300000BB300000BD300000BF30000080
:1000D000C1300000C3300000C53000000000000047
:1000E0000000000000000000000000000000000010
:1000F0000000000000000000000000000000000000
:1001000010B5054C237833B9044B13B10448AFF351
:1001100000800123237010BD0006002000000000B5
:1001200068EA000008B5064B1BB106480649AFF364
:1001300000800648036813B1054B03B1984708BD1A
:100140000000000068EA000004060020F00500201E
:1001500000000000154B002B08BF134B9D46A3F574
:10016000803A00218B460F461348144A121A0DF0AC
:10017000A6F90F4B002B00D098470E4B002B00D058
:1001800098470020002104000D000D48002802D0EF
:100190000C48AFF300800DF063F92000290000F057
:1001A000D1FD0DF04BF800BF000008000000022058
:1001B000000000000000000000060020049B012059
:1001C000000000000000000080B483B000AF0346D0
:1001D000FB71084B97F907205209F97901F01F01CB
:1001E000012000FA01F143F822100C37BD465DF8FA
:1001F000047B704700E100E080B483B000AF0346A9
:100200003960FB7197F90730002B0BDA0D49FB7948
:1002100003F00F03043B3A68D2B25201D2B20B444E
:100220001A7609E0084997F907303A68D2B25201C4
:10023000D2B20B4483F800230C37BD465DF8047B33
:10024000704700BF00ED00E000E100E080B485B041
:1002500000AF786039607B6803F10473DA003B68B3
:1002600013449B00FB60FB681B6818461437BD46AF
:100270005DF8047B704700BF80B483B000AF786046
:10028000044B7A68C3F81C210C37BD465DF8047B2B
:10029000704700BF0060004080B483B000AF78605A
:1002A000064B064AD2F810117A680A43C3F81021A7
:1002B0000C37BD465DF8047B704700BF006000400E
:1002C00080B582B000AF03463960FB71FB79002B2B
:1002D0000DD0FB79012B0AD0FB79022B07D0FB79DB
:1002E000032B04D0FB79042B01D0FB79052BFA7981
:1002F0001346DB0013449B001C3303F1804303F5DA
:10030000C04318463968FFF7A1FF0346184608376F
:10031000BD4680BD80B483B000AF03463960FB7139
:10032000FB79002B0DD0FB79012B0AD0FB79022B36
:1003300007D0FB79032B04D0FB79042B01D0FB7988
:10034000052B0948FA793B68012101FA03F31946A4
:100350001346DB0013449B000344103359600C37F1
:10036000BD465DF8047B70470060004080B483B0F8
:1003700000AF03463960FB71FB79002B0DD0FB7990
:10038000012B0AD0FB79022B07D0FB79032B04D079
:10039000FB79042B01D0FB79052B0948FA793B68DE
:1003A000012101FA03F319461346DB0013449B00B5
:1003B0000344103319600C37BD465DF8047B704769
:1003C0000060004080B582B000AF0C4B1B687B60C2
:1003D0003B46184602F0F2FD7B681B0E0F2B0AD934
:1003E0003B78032B07D1064B054A126822F05002D6
:1003F00042F010021A600837BD4680BDFC81E00F54
:10040000C0800C4080B483B000AF78607B685B6ACA
:1004100018460C37BD465DF8047B704780B483B046
:1004200000AF78607B689B6A18460C37BD465DF864
:10043000047B704780B483B000AF786039607B681C
:100440003A681A620C37BD465DF8047B704700BFFE
:1004500080B483B000AF786039607B685A693B68CC
:10046000DB431A407B685A610C37BD465DF8047B5C
:10047000704700BF80B483B000AF78600B46FB705C
:10048000FA787B685A600C37BD465DF8047B70478C
:1004900080B483B000AF786039607B683A689A6155
:1004A0000C37BD465DF8047B704700BF80B483B055
:1004B00000AF786039607B68DA683B68DB431A40DC
:1004C0007B68DA600C37BD465DF8047B704700BF7F
:1004D00080B483B000AF786039607B68DA683B68CD
:1004E0001A437B68DA600C37BD465DF8047B7047C1
:1004F00080B483B000AF786039607B683A689A64F2
:100500000C37BD465DF8047B704700BF80B483B0F4
:1005100000AF786039607B68DA6C3B681A437B68AF
:10052000DA640C37BD465DF8047B704780B483B055
:1005300000AF78607B68DB69DBB218460C37BD46DC
:100540005DF8047B704700BF80B500AF014809F03B
:100550008FF980BD0080084080B400AF72B6084BB0
:100560001B68B3F1FF3F04D0054B1B685A1C044BBA
:100570001A60034B1B681846BD465DF8047B704744
:10058000FC07012080B483B000AF0C4B1B68002B2C
:100590000DD00A4B1B685A1E084B1A60074B1B688C
:1005A0007B607B68002B00D162B67B6800E0002393
:1005B00018460C37BD465DF8047B7047FC070120E8
:1005C00080B400AF034B1B78DBB21846BD465DF824
:1005D000047B70473F07002090B583B000AF584BB5
:1005E0001B78DBB2002B19D056480121FFF730FFF2
:1005F000554B1C685348FFF705FF03469AB2534B0F
:1006000023F814204F4801F02DF9514B01221A70A4
:100610004D4B1B685A1C4C4B1A608EE04D4B1B68AF
:10062000002B0BD106F040FC00200E21FFF79EFEB0
:1006300000234948194608220CF041FF414B9B68B2
:1006400003F040731B0E7B607B68032B05D9434886
:10065000DA21434A434B0CF0CFFD3A48FFF7DEFE68
:1006600003467B80404B1B68002B05DD3E4B1B681F
:100670005A1E3D4B1A6015E0374B7A68798823F88B
:1006800012107B68032B0DD1334806F0C1FB374BAA
:100690001B685A1C354B1A6000232F481946082244
:1006A0000CF00DFF314B1B681C4605F0DDFC0346CA
:1006B0009C4208D8274B1B685A1C264B1A602C4BAF
:1006C00001221A6035E000200E21FFF723FE294B9E
:1006D0001B68DB8E9BB2184603F0E0F8194801F066
:1006E000C1F8244B1B6803F12C02224B1B683433E6
:1006F0001046194603F0F8F906F064FB1B4B1B6823
:100700005A1E1D4B1A601D4B00221A70114B0022FD
:100710001A60164B00221A60154B03221A60184B00
:1007200001221A700A2005F05BF800200E21FFF765
:100730001DFE04480221FFF77DFE0C37BD4690BD2B
:100740004107002000200040280600205408012016
:10075000420700201C0600204407002080E1000022
:1007600064E2000094E100002C0600202006002036
:100770000000002094E20000240600203F07002033
:100780004007002080B582B000AF254B1B78DBB25C
:10079000002B00D040E04FF040234FF400625A623B
:1007A000204B1B681B8F9BB2184603F077F8002084
:1007B0000E21FFF7AFFD1C4801F054F81B4B00223F
:1007C0001A701B4B00221A701A4B00221A60154B2C
:1007D0001B682C337B607B6804331B689B001A46C4
:1007E000154B1A6002F048FF0246144B1A600E487F
:1007F0000421FFF73FFE124B01221A70084B012221
:100800001A70104B01221A600F480121FFF74EFEAB
:100810000E480121FFF74AFE0837BD4680BD00BFE4
:100820003F07002094E20000002000404107002024
:1008300042070020280600202C060020680801201E
:100840003D07002000000020001000400014004080
:1008500080B582B000AF13E00E48FFF767FE034695
:10086000FB710D4B1B68B3F5837F09D20A4B1B68E4
:100870000A4AF979D154084B1B685A1C064B1A6076
:10088000044B1B6903F08003002BE5D10837BD46FC
:1008900080BD00BF00E00040380700203006002087
:1008A00080B500AFFFF7D4FF02480421FFF720FE18
:1008B00080BD00BF00E0004080B5CAB000AF02209C
:1008C0000821FFF7FDFC0346002B0AD1AE4B0122A5
:1008D0001A60AE4B00221A6002200921FFF71AFDB0
:1008E0004AE102200921FFF741FDFFF7B1FFFFF7C1
:1008F00033FEA64B1B68C7F82031D7F820313A46A3
:100900001046A3491A460CF0D1FDFFF73BFE092320
:10091000C7F81C319F4B1B68002B04D103F0ECF986
:100920009C4B01221A609C489C4940F2AF120CF08B
:1009300023FE984B1B68002B04D103F0DDF9954B87
:1009400001221A6096480CF017FE0023C7F82431E4
:1009500016E0904B1B68002B04D103F0CDF98D4BB2
:1009600001221A603A46D7F8243113441B788D4887
:1009700019460CF001FED7F824310133C7F82431B1
:10098000D7F81C31C7F81831D7F82031C7F814311F
:10099000D7F81421D7F818319A42A8BF1A46D7F8C9
:1009A00024319A42D5DC7B4B1B68002B04D103F029
:1009B000A3F9784B01221A60D7F82021D7F81C310F
:1009C0009A4201DD784B00E0784B794819460CF0EB
:1009D000D3FD3B465B78252B1AD16E4B1B68002B51
:1009E00004D103F089F96B4B01221A606A486B4904
:1009F0004FF4DA720CF0C0FD664B1B68002B04D17B
:100A000003F07AF9634B01221A606A480CF0B4FDD6
:100A10003B461846D7F8201103F02AFCC7F810010E
:100A2000D7F81031022B40F389803B469B7803F0C6
:100A30000103002B0CBF0023012387F80F313B4635
:100A40009B7803F002035B10C7F808313B469B78A4
:100A500003F00803002B0CBF0023012387F80731A4
:100A600097F80F31002B29D04A4B1B68002B04D17B
:100A700003F042F9474B01221A604748474940F2C8
:100A8000BF120CF079FD434B1B68002B04D103F01F
:100A900033F9404B01221A603B461B7819463B460E
:100AA0005B781A463B469B7843480CF065FD3B4615
:100AB0001846D7F8101104F00DFF3EE0354B1B68C7
:100AC000002B04D103F018F9324B01221A6032488E
:100AD00032494FF4E2720CF04FFD2E4B1B68002B95
:100AE00004D103F009F92B4B01221A603B461B7815
:100AF00019463B465B781A463B469B782F480CF0DC
:100B00003BFD3B46184603F08BFB97F80731002B63
:100B100005D12B4B1B68D7F808219A420DD0284BE2
:100B2000D7F808211A60274B01221A703B46184655
:100B3000D7F8101104F0CEFE1BE01AE0154B1B682D
:100B4000002B04D103F0D8F8124B01221A6012488E
:100B500012494FF4EF720CF00FFD0E4B1B68002B87
:100B600004D103F0C9F80B4B01221A6016480CF0AF
:100B700003FD054B03221A604FF48070FFF77CFBE6
:100B800007F59477BD4680BD04000020380700209B
:100B90003006002054070020ACE1000074E20000A1
:100BA000B8E10000CCE10000D0E10000D4E1000099
:100BB000D8E10000E0E10000E8E1000004E200000C
:100BC000080000203C07002028E2000080B586B025
:100BD00000AF16233B7050237B70284B1B88A7F86F
:100BE0000330264B5B88184600F066F803469BB23C
:100BF000A7F80530224B1B68DB43DB0FDBB27B61C0
:100C0000204B9B6803F002033B611E4B9B6803F083
:100C10000203FB607B69DAB2FB68DBB21344DAB231
:100C20003B69DBB25B00DBB21344DBB25B00DAB2E0
:100C3000154B1B68DBB21344DBB2BB700023FB71A6
:100C40000E4B5B893B810E4B1B68002B05DD3B4641
:100C5000072019460A2203F0A3FFB7F803309AB21F
:100C6000B7F905309BB21BB21046194602F058FE88
:100C70000246054B1A601837BD4680BD5408012056
:100C800064000020001000400C00002080B500AF80
:100C9000092002F09BFD054B01221A70044B012232
:100CA0001A6004480121FFF7E5FB80BD41070020E1
:100CB000000000200020004080B586B000AF034651
:100CC000FB801D4B1B6803F47F031B0C18460BF0C5
:100CD00015FD03467B61184BDB681B0D18460BF0B6
:100CE0000DFD03463B61154BFB60FB88DB089BB2A7
:100CF00018460BF007FD0346386919460BF04CFC0B
:100D000003461846F9680BF005FE03467869194654
:100D10000BF042FC0346184609490BF047FD034619
:100D200018460BF009FF03467B81B7F90A301846D5
:100D30001837BD4680BD00BFB081E00F9A99C9C089
:100D40000000C842F0B5CDB008AFFFF73BFBBF4B8A
:100D50001B68002B04D102F0CFFFBC4B01221A60AC
:100D6000BA4B1B68002B04D102F0C6FFB74B01221F
:100D70001A60B748B74940F28F220CF0FDFBB34B25
:100D80001B68002B04D102F0B7FFB04B01221A60A0
:100D9000B1480CF0F1FBB148012101F03DF9B04838
:100DA000012101F039F9AF48012101F035F9AE48D0
:100DB000012101F031F9AD48012101F02DF9AC48D4
:100DC000012101F029F9AB48012101F025F9AA48D8
:100DD000012101F021F9032001F080FC02F08CFADE
:100DE000A64B1B68DB8E9BB2184602F02DFD02203D
:100DF00007210822012301F0E5FF02F0CBFE9F4B03
:100E00001B6803F12C029D4B1B68343310461946B6
:100E100002F06AFE02F016FF994800F023FD06F08A
:100E2000C3FE07F04DF802F015FF96480121FFF7C9
:100E30004FFB0620FFF7C8F906200221FFF7DCF977
:100E400091480121FFF744FB07200421FFF7D4F963
:100E50008E480421FFF74CFB8C480421FFF756FB1A
:100E60001420FFF7B1F914200121FFF7C5F94FF461
:100E70008070FFF701FA4FF48070FFF70DFA012040
:100E8000FFF7A2F901200321FFF7B6F9FFF7E0FC15
:100E90007F4B00221A607F4A07F120031068186018
:100EA00012791A7107F120031846052103F016F88C
:100EB0004FF4FA7004F094FC774A07F118031068B5
:100EC000186012791A7107F118031846052103F00A
:100ED00005F84FF4FA7004F083FC08233B750023F7
:100EE0007B750023BB7507F114031846032102F03C
:100EF000F5FF6A4BC7F80C314FF00003C7F8083113
:100F00004FF00003C7F804314FF000024FF0000328
:100F1000C7E93E23012387F8F330614B1B78DBB22E
:100F2000002B0AD05F4B01221A7002205E4900227A
:100F300003F036FE5A4B00221A7005F003FB5B4BA0
:100F40001B78DBB2002B1FD0564B00221A703B4699
:100F5000184606F0DBF83B4603201946122203F040
:100F60001FFE524B00221A7046480121FFF790FAEB
:100F700044480121FFF7ACFA43480121FFF788FA02
:100F800041480121FFF7A4FA494B1B78DBB2002B43
:100F900003D197F8F330002B4BD0454B00221A7049
:100FA000D7E93E23C7E93223012387F8D030002355
:100FB00087F8D1304FF0FF33C7F8D4304FF0FF330C
:100FC000C7F8D8300023C7F8DC304FF0FF33C7F83C
:100FD000E0300023C7F8E4300023C7F8E83007F119
:100FE00038066C4607F1D0050FCD0FC495E80F0009
:100FF00084E80F0007F1C8030CCB304604F034FD41
:101000000346002B14BF0023012387F8F33097F821
:10101000F330002B0CD0D7E93023013243F1000329
:10102000C7E93E2307F13803184603F059FB03E0F4
:1010300002E0002387F8F3301E4B1A681E4B1B6832
:101040009A423BDA1B4B1B683AE000BF5407002072
:10105000ACE100008CE200003CE2000040810400B2
:10106000000205000092040000A204000012050026
:1010700000D20400003204006016100094E2000068
:1010800000200040001000400014004000E000403C
:101090003807002054E200005CE2000000007A44BF
:1010A0003D07002058070020D4E100003E07002043
:1010B0003C0700200000002004000020A54B1B6816
:1010C000C7F8F430A44B1B78DBB2002B08D197F89B
:1010D000F330002B04D1A14B1B78DBB2002B01D0E5
:1010E000012300E0002387F8F23097F8F23003F094
:1010F000010387F8F23001231C46D7F8080198490C
:101100000BF006FD0346002B01D100231C46E3B281
:101110001A46944B1B78DBB283F00103DBB2134019
:10112000002B05D003F020FA4FF00003C7F8083178
:10113000D7F80C018C490BF0EBFC0346002B1DD0BB
:10114000D7F8F430032B19D197F8F23083F001036C
:10115000DBB2002B12D04FF00003C7F80C31FFF7C1
:1011600095FD824B1A687B4B1B689A4202DA7F4BD3
:101170001B6801E0774B1B68C7F8F4307C4B1B7889
:10118000DBB2002B56D07B4B1B68012B07D108200C
:1011900002F01CFB78480121FFF76CF93DE0754B2C
:1011A0001B68022B07D1042002F010FB72480121BA
:1011B000FFF760F931E06F4B1B68032B07D1052067
:1011C00002F004FB6C480121FFF754F925E0694B5C
:1011D0001B68042B07D1062002F0F8FA66480121AB
:1011E000FFF748F919E0634B1B68052B07D107206F
:1011F00002F0ECFA60480121FFF73CF90DE0FFF73F
:10120000E5FC5E4B00221A70594B00221A70594BB4
:1012100000221A60554B03221A60544B1A684D4B3A
:101220001B689A4202DA514B1B6801E0494B1B686C
:10123000C7F8F430484B1B78DBB2002B7FF46DAE5F
:1012400097F8F330002B7FF468AE444B1B78DBB289
:10125000002B7FF462AED7F8F430032B61D801A2E3
:1012600052F823F02313000075120000AF120000A3
:10127000E912000001204FF47A71012206F078FE95
:10128000034618460AF0DCFD02460B461046194696
:101290004FF000023A4B0AF073FF02460B4610462D
:1012A00019460BF025F90346C7F8043139E001204F
:1012B0004FF47A71022206F05BFE034618460AF0EC
:1012C000BFFD02460B46104619464FF000022C4B5C
:1012D0000AF056FF02460B46104619460BF008F975
:1012E0000346C7F804311CE001204FF47A71032251
:1012F00006F03EFE034618460AF0A2FD02460B46E3
:10130000104619464FF000021D4B0AF039FF024605
:101310000B46104619460BF0EBF80346C7F80431AC
:1013200000BFD7F80C01D7F804110BF037F90346CA
:10133000C7F80C31D7F80801D7F804110BF02EF9D3
:101340000346C7F808314FF00003C7F80431FFF730
:10135000FBF8E2E5040000203E0700203C070020E7
:1013600000C0A84750070020000061440000002092
:1013700042070020280600200020004041070020EE
:1013800000408F4080B487B000AFF860B9607A60E9
:10139000FB6803F10473DA00BB6813449B007B61B4
:1013A0007B697A681A601C37BD465DF8047B70471C
:1013B00080B483B000AF78607A68094B9A4203D05A
:1013C0007A68084B9A4200D100BF7B681B6843F0E3
:1013D00001027B681A600C37BD465DF8047B7047DC
:1013E000001000400014004080B483B000AF78606B
:1013F0007A680D4B9A4203D07A680C4B9A4200D11E
:1014000000BF7B684FF08E421A607B68084A5A60C2
:101410007B680022DA607B6803229A610C37BD4644
:101420005DF8047B704700BF0010004000140040CE
:101430008000010080B483B000AF786013460A4694
:10144000FA70BB707A680C4B9A4203D07A680B4BE7
:101450009A4200D100BF7B685B6823F0F702FB78FB
:101460001B011A43BB781A437B685A600C37BD4690
:101470005DF8047B704700BF00100040001400407E
:1014800080B582B000AF786039607A68224B9A42AA
:1014900003D07A68214B9A4200D100BF7B6818467E
:1014A00000210022FFF76EFF3B681B78DA073B68DC
:1014B0005B789B0713431A463B685B681B061A431D
:1014C0003B681B7A5B041A433B685B7A1B041A4334
:1014D0003B689B7A1B021A433B68DB7A1B011A4369
:1014E0003B681B7B9B001A437B681A603B685B7BF5
:1014F0001B041A463B681B691B021A437B685A602F
:101500007A683B681B7D104600211A46FFF73AFFB8
:101510000837BD4680BD00BF0010004000140040E9
:1015200080B487B000AF786013460A46FA70BB708B
:10153000BB78002B04D01023FB603E4B3B6103E0E3
:101540000023FB603C4B3B617B685A6B3B6913405B
:10155000BB6000237B61FB78062B5BD801A252F8AD
:1015600023F000BF811500009F150000C315000087
:10157000E115000015160000151600000516000004
:101580002E4B5B6803F4FE437A6913437B612B4B5C
:101590005B6803F07F037A6913437B613DE0274B6F
:1015A0005B6803F0FE431B0E1B027A6913437B61E9
:1015B000224B5B6803F4FE031B0C7A6913437B61C7
:1015C0002BE01E4B9B6803F4FE437A6913437B6157
:1015D0001A4B9B6803F07F037A6913437B611CE01D
:1015E000164B9B6803F0FE431B0E1B027A691343E4
:1015F0007B61124B9B6803F4FE031B0C7A69134357
:101600007B610AE00D4BDB6803F07F037A691343CB
:101610007B6102E000237B6100BFFB687A699A402E
:10162000BB681A437B685A631C37BD465DF8047B70
:10163000704700BFFFFF80808080FFFFB081E00F18
:1016400080B584B000AF786039603B681B79FB726D
:10165000FB7A002B06D11B48002100F0D1F803468D
:10166000FB7208E01748002100F0CAF84FF4FA4076
:10167000002100F0C5F87B680A225A603B681B789D
:101680001A063B68DB781B0403F4F8131A43FB7A51
:101690001B0203F4FE431A433B685B781B011A43A9
:1016A0003B689B781343FB603B685B79002B03D05E
:1016B000FB6843F00803FB607B68FA681A60103728
:1016C000BD4680BD405DC60080B584B000AF786087
:1016D00039607B6808225A603B689B7878681946B5
:1016E0000122FFF71DFF3B681B781A073B685B78F8
:1016F0001B0513431A463B685B681A433B68DB785B
:101700001B011343FB603B685B7A002B03D0FB6833
:1017100043F08073FB603B689B7A002B03D0FB682F
:1017200043F00403FB603B681B7A002B03D0FB688B
:1017300043F00203FB603B68DB7A002B03D0FB68BD
:1017400043F00103FB603B689B781B04FA6813437A
:10175000FB603B685B68FA681343FB607B68FA6870
:101760001A611037BD4680BD80B584B000AF786087
:1017700039607B6802225A603B689B78786819461A
:101780000022FFF7CDFE3B681B781A073B685B78A9
:101790001B051A433B681B791B0213431A463B681F
:1017A000DB781B011343FB603B689B79002B03D064
:1017B000FB6843F08073FB603B68DB79002B03D050
:1017C000FB6843F00403FB603B685B79002B03D0AC
:1017D000FB6843F00203FB603B681B7A002B03D0DD
:1017E000FB6843F00103FB603B689B781B04FA68CD
:1017F0001343FB607B68FA68DA601037BD4680BD32
:1018000080B584B000AF786039607A68134B9A4233
:1018100002D9124B7B6006E07B68B3F5FA4F02D227
:101820004FF4FA437B603B68002B03D10C4800F077
:101830005FFC38603A687B6813445A1E7B68B2FBD1
:10184000F3F3FB60FB68002B02D0FB68013BFB60FD
:10185000FB68DBB218461037BD4680BD405DC60050
:101860004081040080B582B000AF78607B680A22B6
:101870005A607B680022DA607B6800221A617B680C
:101880004FF4F8121A607B6800225A617B6840F2BC
:1018900003321A627B6840F24772DA63786800218B
:1018A0000022FFF73DFE786800210122FFF738FE95
:1018B0000837BD4680BD00BF80B582B000AF7860FC
:1018C0007B68002B08D1114800F012FC78607B681F
:1018D000002B01D101237B607A680D4B9A4201D91C
:1018E0000B4B7B607B6803F5742303F23F237B6023
:1018F0007A68084BA3FB02139B0C7B607B68DBB20E
:10190000013BDBB218460837BD4680BD408104006C
:101910000048E80183DE1B4380B487B000AFF86065
:10192000B9607A60FB6803F10473DA00BB681344A2
:101930009B007B617B697A681A601C37BD465DF845
:10194000047B704780B485B000AF786039607B68F5
:1019500003F10473DA003B6813449B00FB60FB68EF
:101960001B6818461437BD465DF8047B704700BFFE
:1019700080B485B000AF78607B68002B04D07B68B2
:10198000B3F5004F00D800BF7B68B3FA83F3C3F10F
:101990001F03FB60FB6818461437BD465DF8047BE7
:1019A000704700BF80B400AF044BDB6C1B0EDBB292
:1019B0001846BD465DF8047B704700BFB081E00F5C
:1019C00080B400AF054BDB6C03F47F031B0CDBB270
:1019D0001846BD465DF8047B704700BFB081E00F3C
:1019E00080B582B000AFFFF7EBFF03464A2B04D06F
:1019F000792B02D0482B22D023E0144B1B699BB2D9
:101A000003F03F039BB21B02FB80104B9B699BB210
:101A100003F0F0039AB2FB881343FB800B4BDB69A6
:101A200003F0F0031B099AB2FB881343FB80FB8889
:101A3000B3F5017F01D3064B04E0064B02E0054BF2
:101A400000E0002318460837BD4680BDD0FF0FE0F8
:101A500000366E010048E80180B584B000AF7860C0
:101A600039607A683B689A4294BF00230123DBB255
:101A7000FB6006481E21FA68FFF74EFF0448082164
:101A8000FA68FFF749FF1037BD4680BD00800C4063
:101A900004800C4080B582B000AF07481E21FFF7DC
:101AA00051FF786005480821FFF74CFF38607B68DC
:101AB00018460837BD4680BD00800C4004800C40AD
:101AC00080B582B000AF214B5B6903F4E063B3F5EE
:101AD000007F1CD0B3F5007F05D8002B25D0B3F5CF
:101AE000807F1FD02AE0B3F5C06F24D0B3F5E06F3C
:101AF0001ED0B3F5407F21D1FFF754FF0346122BD0
:101B000002D9134B7B601CE0124B7B6019E0FFF79E
:101B100049FF0346122B02D90F4B7B6011E00F4B9C
:101B20007B600EE00E4B7B600BE00E4B7B6008E0B1
:101B30000D4B7B6005E00D4B7B6002E000237B607A
:101B400000BF7B6818460837BD4680BD00800C404A
:101B5000804F120040420F0040B56400C0CF6A00C1
:101B6000C0D8A700809FD500406F4001003FAB0167
:101B700080B582B000AF0D4800F0A6FB0346FB70B5
:101B8000FB78072B05D0082B07D101F0CFFA78603E
:101B900006E0FFF795FF786002E000237B6000BF5E
:101BA0007B6818460837BD4680BD00BF06000C00A4
:101BB00080B485B000AF7860284BDB6B002B0CBF86
:101BC00000230123BB72254B41F67132DA63234BAC
:101BD0005B6803F00703FB60FB68012B01D9042B52
:101BE00002D10023FB7202E00123FB7200BF7A687E
:101BF0001B4B9A4207D9FB7A002B01D0052300E04A
:101C00000423FB6016E07A68154B9A420BD87A6879
:101C1000144B9A4207D9FB7A002B01D0032300E032
:101C20000123FB6006E0FB7A002B01D0022300E0D9
:101C30000023FB60094B094A526822F00701FA6849
:101C40000A435A60BB7A002B02D0044B0022DA63AD
:101C50001437BD465DF8047B704700BF00000C40A0
:101C60000048E8010024F40080B500AF01F054FA08
:101C700003461846FFF79CFF80BD00BF90B585B0B6
:101C800000AF78600023BB607B68344A934203D086
:101C9000334A934200D000E000BF786800F014FBA4
:101CA0000346FB607B682D4A934203D02C4A934243
:101CB00006D00CE02B4B9B6A03F00303FB6006E0AD
:101CC000284B9B6A03F00C039B08FB6000BFFB687A
:101CD000032B3AD801A252F823F000BF131D0000D5
:101CE000ED1C0000F51C0000FD1C000001F0B0FA26
:101CF000B8602DE001F0C0FAB86029E001F0F2F917
:101D00000446FFF7C7FE0346013324FA03F3BB6022
:101D10001EE00023BB607A68104B9A4203D07A68B9
:101D20000F4B9A4210D10F4B9A6A79680B4B99422C
:101D300001D1102300E0142322FA03F3002B03D077
:101D400001F090FAB86003E002E00023BB6000BF3E
:101D5000BB6818461437BD4690BD00BF020018008E
:101D600003001A0000800C4080B483B000AF78609C
:101D7000094B5B6D03F00103002B00D006E000BFB0
:101D8000054B1A6D7B681340002BF9D10C37BD460B
:101D90005DF8047B704700BF00800C4080B582B0C6
:101DA00000AF104800F090FA0346FB70FB78032B5D
:101DB00007D0082B09D0022B0BD101F05DFA786017
:101DC0000AE001F045FA786006E001F0AFF97860CA
:101DD00002E000237B6000BF7B6818460837BD46E1
:101DE00080BD00BF07232000B0B584B000AF78608D
:101DF00039607B681B0903F00F03FB60FB68013B44
:101E0000062B00F2F68001A252F823F0291E0000F2
:101E1000F31F0000F31F00005D1E0000871E00007E
:101E2000DB1E00009F1F00003B68002B03D03B68B7
:101E3000082B00D800BFFFF717FF704B6F4A1268DE
:101E400022F4E0313A68013A92030A431A6001F041
:101E500049F9B860B868FFF7ABFECBE03B68002BF0
:101E600004D03B68B3F5007F00D800BF3868FFF7A7
:101E70007FFD3860614B614A926822F00F013A6839
:101E80000A439A60B6E03B68002B04D03B68B3F588
:101E9000007F00D800BFFFF7E7FE01F047F90246D8
:101EA0003B68B2FBF3F4FFF79BFD0346204619465F
:101EB000FFF7D2FD3868FFF75BFD38604F4B4F4AA4
:101EC000526822F00F013A680A435A6001F00AF999
:101ED000B860B868FFF76CFE8CE07B68484A9342B4
:101EE0001ED0474A934203D8464A934207D055E052
:101EF000454A934225D0454A93423FD04EE00420C4
:101F0000FFF732FF3868FFF733FD38603B4B3B4A41
:101F1000926E22F0F0013A6812010A439A663DE09F
:101F20000420FFF721FF3868FFF722FD3860334BAC
:101F3000324A926E22F470613A6812020A439A663B
:101F40002CE03B680F2B03D93B68802B00D800BFE7
:101F50000420FFF709FF3868FFF70AFD3860274CB7
:101F6000264B9B6E23F440551020FFF701FD0346DE
:101F70003A68D31A1B032B43A3660FE00420FFF734
:101F8000F3FE3868FFF7F4FC38601C4B1B4A926E76
:101F900022F003013A680A439A6600BF2AE07B6890
:101FA0001B4A934203D01B4A934210D020E04020AA
:101FB000FFF7DAFE3868FFF7DBFC38600F4B0F4A9B
:101FC000126F22F003013A680A431A6710E04020BA
:101FD000FFF7CAFE3868FFF7CBFC3860074B074AAB
:101FE000126F22F030013A6812010A431A6700BFEB
:101FF00000E000BF1037BD46B0BD00BF00800C4000
:1020000060261200601610006000240060062800A0
:10201000700714007017160090B587B000AF786095
:102020000B46FB7000233B617B681B0A03F00F0328
:10203000013B092B49D801A252F823F0812000006E
:102040008720000065200000CB200000CB2000008E
:102050008D20000097200000CB200000CB20000046
:10206000A12000001B4B7B611B4800F041F8044697
:10207000FFF7B6FC034620461946FFF7EDFC12E0D9
:10208000164B7B610FE0164B7B610CE0154B7B61BF
:1020900001233B6107E0144B7B6110233B6102E0AD
:1020A000124B7B6100BF7B681B0B03F01F03FB60BF
:1020B0003B69002B02D03869FFF756FEFB78786940
:1020C000F9681A46FFF728FC00E000BF1C37BD4640
:1020D00090BD00BF40800C400043020008800C40CF
:1020E00044800C4058800C4060800C4078800C404C
:1020F00090B585B000AF78607B6803F47813B3F5D2
:10210000A01F00F0AB80B3F5A01F1AD8B3F5402F85
:1021100000F0BF80B3F5402F08D8B3F5003F3CD0A6
:10212000B3F5802F2DD0002B27D0BEE0B3F5801F54
:102130003CD0B3F5901F47D0B3F5602F00F0AD80D1
:10214000B3E0B3F5001F00F0AC80B3F5001F0AD870
:10215000B3F5C01F25D0B3F5D01F7AD0B3F5B01FAB
:1021600000F08980A1E0B3F5181F4ED0B3F5201F11
:1021700062D0B3F5101F35D097E000F0D7FFF860BC
:1021800096E000F0D3FFF8604C4B9B6803F00F0320
:10219000FA6822FA03F3FB608AE000F0A3FFF8601C
:1021A00086E04748FFF76AFDF86081E04448FFF7A2
:1021B00065FDF860414B9B6E03F0F0031B09FA6864
:1021C00022FA03F3FB6073E03D48FFF757FDF86028
:1021D0003A4B9B6E03F470631B0AFA6822FA03F30E
:1021E000FB6065E03648FFF749FDF860334B9B6EB6
:1021F00003F440531C0B1020FFF7BAFB03462344A3
:10220000FA6822FA03F3FB6052E02D48FFF736FD2F
:10221000F8602A4B9B6E03F440531B0BFA6822FABA
:1022200003F3FB60254BDB6F03F007030133FA6810
:10223000B2FBF3F3FB603BE02148FFF71FFDF860C2
:102240001E4B9B6E03F00303FA6822FA03F3FB6054
:102250002EE01C48FFF712FDF86029E01948FFF74F
:102260000DFDF860154B1B6F03F00303FA6822FAAB
:1022700003F3FB601CE01348FFF700FDF8600F4B11
:102280001B6F03F030031B09FA6822FA03F3FB60AB
:102290000EE0FFF76DFCF8600AE0FFF711FCF86054
:1022A00006E0FFF77BFDF86002E00023FB6000BF63
:1022B000FB6818461437BD4690BD00BF00800C4037
:1022C0000200180003001A0080B485B000AF7860E7
:1022D0000123FB737B6803F00F03BB60BB68013B0A
:1022E000062B00F2938001A252F823F0092300008C
:1022F0003F2300007B2300000D2400000D2400007C
:10230000B7230000D9230000454BDB6A03F4705368
:10231000B3F5805F09D0B3F5005F03D0B3F5006F6C
:1023200006D008E00223FB7308E00323FB7305E0FB
:102330000423FB7302E00523FB7300BF69E0384B05
:102340009B6A03F00303022B06D0032B07D0012B5B
:1023500008D10323FB730FE00223FB730CE0062379
:10236000FB7309E02E4B9B6A03F48033002B02D0F1
:102370000923FB7300E000BF4BE0294B9B6A03F08D
:102380000C03082B06D00C2B07D0042B08D10323F9
:10239000FB730FE00223FB730CE00623FB7309E0E1
:1023A0001F4B9B6A03F48013002B02D00923FB739D
:1023B00000E000BF2DE01A4B1B6803F08053002B98
:1023C00003D0B3F1805F03D023E00723FB7302E067
:1023D0000823FB7300BF1CE0114BDB6A03F460337E
:1023E000B3F5803F08D0B3F5003F08D0B3F5004FF8
:1023F00008D10823FB7308E00223FB7305E00323E5
:10240000FB7302E00123FB7300BF02E00023FB73B8
:1024100000BFFB7B18461437BD465DF8047B704750
:1024200000800C4090B589B000AF78600B46FB701F
:102430000323FB610323FB7600233B617B6803F0EE
:102440000F03FB60FB68013B062B00F2348101A205
:1024500052F823F0712400005D2500005D25000086
:10246000B7260000B7260000252600004F260000F2
:10247000FB78023B072B00F2228101A252F823F0E5
:10248000A1240000AB240000B5240000FF240000BC
:10249000BF260000BF260000BF260000BF260000A8
:1024A0000423FB610023FB7639E00323FB61012356
:1024B000FB7634E00223FB610223FB76FFF790FA00
:1024C00003465C1CFFF78CFA034620461946FFF7CB
:1024D000C3FA00F0ABFE02467C4B9A4206D97C4B15
:1024E0007B4A126842F060021A6018E0784B784A22
:1024F000126822F0600242F020021A600FE001230D
:10250000FB610323FB76FFF76BFA03465C1CFFF7C6
:1025100067FA034620461946FFF79EFA00BFFB7E86
:1025200018460121012200F04BF9FFF79DFB684B93
:10253000FA695A626748FFF7DBFD0446FFF750FA75
:10254000034620461946FFF787FA00F045FB00F0E6
:10255000C9FDB860B868FFF72BFBADE0FB78013B25
:10256000082B00F2AE8001A252F823F09125000062
:1025700097250000A7250000C3260000C326000001
:10258000B7250000C3260000C3260000DB2500009D
:1025900000237B6126E000200121012200F010F9D8
:1025A00002237B611EE001200121012200F008F9D5
:1025B00001237B6116E000F095FDB860FFF710FA8B
:1025C0000346B8681946FFF747FA43480421012239
:1025D000FFF7A2F903237B6104E000237B61012361
:1025E0003B6100BFFB68022B0DD1394A384B9B6A17
:1025F00023F4803323F00303796919433B691B04F7
:102600000B43936258E0324A314B9B6A23F48013A8
:1026100023F00C037969890019433B691B050B43BF
:10262000936249E0FB78072B02D0082B07D049E0E2
:10263000274B274A126822F080521A6006E0244B8A
:10264000234A126842F080521A6000BF34E0FB78DF
:10265000032B14D0082B22D0022B00D032E0002014
:102660000121012200F0ACF8194B40225A6200BF50
:10267000174BDB6A03F48033002BF9D01AE00120FA
:102680000121012200F09CF8114B60225A6200BF28
:102690000F4BDB6A03F40033002BF9D00AE00C4B3C
:1026A00020225A6200BF0A4BDB6A03F40043002B6E
:1026B000F9D000BF00E000BFFFF7ECF902E000BF77
:1026C00000E000BF2437BD4690BD00BF0048E801D0
:1026D00000800C400043020040800C4090B587B061
:1026E00000AF0346FB71FB79052B5FD801A252F8BE
:1026F00023F000BF0D27000017270000252700004A
:10270000332700003D27000047270000294BDB6AE4
:10271000DBB27B611EE0274BDB6A03F47F431B0ABD
:102720007B6117E0234BDB6A03F47F031B0C7B61A7
:1027300010E0204BDB6A1B0E7B610BE01D4B1B6B1B
:10274000DBB27B6106E01B4B1B6B03F47F431B0A70
:102750007B6100BF1120FFF7B7FD0346FB74FB7CD4
:10276000052B01D1FFF780FA134A134BDB6823F4E2
:10277000FF6323F00703F979090219437B690B43CF
:10278000D360FB7C052B05D100F0ACFCF860F86849
:10279000FFF70EFA0948FFF7ABFC0446FFF720F9F4
:1027A000034620461946FFF757F900E000BF1C37E3
:1027B000BD4690BDB081E00F00800C400043020098
:1027C00080B586B000AF13460246FA710A46BA7168
:1027D0007B71FB79042B4AD801A252F823F000BF89
:1027E0002D2800001F28000003280000F527000006
:1027F0001128000001233B610223FB6001237B6160
:102800001DE004233B610823FB6003237B6116E08A
:1028100010233B612023FB6005237B610FE04023F5
:102820003B618023FB6007237B6108E04FF48073EA
:102830003B614FF40073FB6009237B6100BFBB79F0
:10284000002B0ED00C4B3A691A627B79002B0BD00F
:1028500000BF0A487969FFF775F80346002BF8D0E6
:1028600002E0054BFA681A6200F0B6F900E000BF1A
:102870001837BD4680BD00BF00800C402C800C4046
:1028800080B500AF00F02EFC80BD00BF80B400AF6B
:10289000034B4AF6E8529A60BD465DF8047B7047E8
:1028A00000600C4080B400AF034B0022C3F88420CA
:1028B000BD465DF8047B704700800C4080B400AFDB
:1028C000044B45F60E02C3F88420BD465DF8047B38
:1028D000704700BF00800C4080B582B000AF384B1D
:1028E000D3F8843003F001037B60FFF7E7FF002398
:1028F0003B60344B1B6803F001033A6813433B60B1
:10290000304B1B6803F010033A6813433B602D4BB8
:102910001B6803F040033A6813433B60294B1B6874
:1029200003F004033A6813433B60264B1B6803F42F
:1029300080733A6813433B60214B3A681A62214B1B
:102940001B6803F47053B3F5805F06D0B3F5005FE6
:102950000ED0B3F5006F16D020E000BF184BDB6A35
:1029600003F08003002BF9D0154B03225A6215E0C7
:1029700000BF134BDB6A03F40073002BF9D0104B3C
:1029800004225A620AE000BF0D4BDB6A03F0080321
:10299000002BF9D00A4B02225A6200BF094B1B6878
:1029A00003F00103002B02D1054B02221A627B685F
:1029B000002B01D0FFF776FF0837BD4680BD00BF72
:1029C00000800C404C07002080B483B000AF174B50
:1029D0001B699BB203F03F039BB21B02FB80134BAE
:1029E0009B699BB203F0F0039AB2FB881343FB8010
:1029F0000E4BDB6903F0F0031B099AB2FB8813430B
:102A0000FB80FB88B3F5827F03D3FB88B3F5017F9E
:102A100001D1012300E0002303F00103DBB21846DB
:102A20000C37BD465DF8047B704700BFD0FF0FE058
:102A300080B586B000AF0346FB711F4BDA6A1F4BAF
:102A40001A601F4B1E4A126942F004021A61FFF716
:102A5000BBFF0346FB75FB7D002B11D0194B1A6899
:102A6000194B1340FB60174BFA68C3F88020154BD5
:102A70005B6823F046033B61124B3A69C3F884203C
:102A800030BFFB7D002B05D00E4BFA681A600D4B52
:102A90003A695A60FB79002B02D0FFF71DFF07E06F
:102AA000064B1B6803F48063002B01D1FFF7E8FE9F
:102AB0001837BD4680BD00BF00800C404C07002089
:102AC00000ED00E000E100E09CF1FD0080B586B083
:102AD00000AF0346FB71274BDA6A274B1A60254B80
:102AE000D3F8843003F001037B61FFF7E7FE214B4D
:102AF0004FF420721A627B69002B01D0FFF7D2FEDF
:102B00001E4B1E4A126942F004021A61FFF75CFF75
:102B10000346FB74FB7C002B11D0194B1A68194B30
:102B20001340BB60164BBA68C3F88020144B5B6837
:102B300023F04603FB60124BFA68C3F8842030BFD1
:102B4000FB7C002B05D00E4BBA681A600C4BFA6860
:102B50005A60FB79002B02D0FFF7BEFE07E0064B60
:102B60001B6803F48063002B01D1FFF789FE18373F
:102B7000BD4680BD00800C404C07002000ED00E009
:102B800000E100E09CF1FD0080B584B000AF114B86
:102B90001B6823F00C0343F00803BB600D4B1B685C
:102BA00043F00C037B60FFF771FE0023FB6008E03D
:102BB000084BBA681A60074B7A681A60FB680133E1
:102BC000FB60FB68032BF3DD024BBA681A60103719
:102BD000BD4680BD00600C4080B400AF034BDA6A94
:102BE000034B1A60BD465DF8047B704700800C40C3
:102BF0004C07002080B487B000AFF860B9607A60FD
:102C0000FB6803F10473DA00BB6813449B007B612B
:102C10007B697A681A601C37BD465DF8047B704793
:102C200080B485B000AFF860B9607A60FB681A685C
:102C3000BB68DB431A407B681A43FB681A60143791
:102C4000BD465DF8047B704780B483B000AF034697
:102C50003960FB71FB79002B0DD0FB79012B0AD079
:102C6000FB79022B07D0FB79032B04D0FB79042BD3
:102C700001D0FB79052B0948FA793B68012101FA5B
:102C800003F319461346DB0013449B00034410333F
:102C900059600C37BD465DF8047B7047006000400A
:102CA00080B483B000AF03463960FB71FB79002B21
:102CB0000DD0FB79012B0AD0FB79022B07D0FB79D1
:102CC000032B04D0FB79042B01D0FB79052B094899
:102CD000FA793B68012101FA03F319461346DB0038
:102CE00013449B000344103319600C37BD465DF854
:102CF000047B70470060004080B586B000AFB960CB
:102D00007A600246FA73BB73FB7B002B0DD0FB7B12
:102D1000012B0AD0FB7B022B07D0FB7B032B04D0BB
:102D2000FB7B042B01D0FB7B052BBB68072B0ED84C
:102D3000BB689B0007229A40F97BBB689B0001FAA5
:102D400003F31A4811461A46FFF76AFF10E0BB6802
:102D5000083B7B617B699B0007229A40F97B7B697A
:102D60009B0001FA03F3124811461A46FFF758FF79
:102D7000BB7B1048B9681A46FFF73CFF97F8203034
:102D80000D48B9681A46FFF735FF0C4BBA680121A8
:102D900001FA02F2C3F81C2197F824300848B968F8
:102DA0001A46FFF727FF1837BD4680BD0061004077
:102DB00004610040086100400C6100400060004078
:102DC0001061004090B585B000AFB9607B600346EC
:102DD000FB731346BB73FB7B002B0DD0FB7B012BDE
:102DE0000AD0FB7B022B07D0FB7B032B04D0FB7BA1
:102DF000042B01D0FB7B052BBB7B002B0DD07B680C
:102E0000002B05D0FB7B1846B968FFF749FF04E0AB
:102E1000FB7B1846B968FFF717FFBB68072B1DD867
:102E20002B48FA7B2A4CF97B0B46DB000B449B00BA
:102E300023445968BB689B000F2404FA03F3DB4367
:102E40001940BC7BBB689B0004FA03F3194313468B
:102E5000DB0013449B000344596024E01C48FA7BC8
:102E60001B4CF97B0B46DB000B449B0023440833CF
:102E70001968BB6803F18043083B9B000F2404FAE8
:102E800003F3DB431940BC7BBB6803F18043083B81
:102E90009B0004FA03F319431346DB0013449B0021
:102EA000034408331960BB7B002B0DD17B68002BDA
:102EB00005D0FB7B1846B968FFF7F2FE04E0FB7B08
:102EC0001846B968FFF7C0FE1437BD4690BD00BF75
:102ED0000060004080B487B000AFF860B9607A60ED
:102EE000FB6803F10473DA00BB6813449B007B6149
:102EF0007B697A681A601C37BD465DF8047B7047B1
:102F000080B485B000AF786039607B68012B05D84C
:102F10003B6803F07F43002B00D100BF7B68002B90
:102F200002D0012B03D008E0064BFB6002E0064B09
:102F3000FB6000BFFB683A681A601437BD465DF855
:102F4000047B7047080008400C00084080B582B040
:102F500000AF0346FB71FB79034800211A46FFF7D7
:102F6000B9FF0837BD4680BD0000084080B485B079
:102F700000AF78607B681B78002B02D00123FB60D8
:102F800001E00023FB607B685B78002B03D0FB68CB
:102F900043F00203FB607B689B78002B03D0FB6847
:102FA00043F00403FB60044BFA681A601437BD4613
:102FB0005DF8047B704700BF0000084080B485B016
:102FC00000AF7860194B5B69DBB203F00F03DBB233
:102FD0009B00FB73154B1B6903F0C0039B09DAB21E
:102FE000FB7B1343FB737B68FA7B9A700F4B1B6967
:102FF000DBB203F03F03DAB27B685A700B4B9B697C
:10300000DBB223F00F03FB73084BDB6903F0F00323
:103010001B09DAB2FB7B1343FB737B68FA7B1A70E4
:103020001437BD465DF8047B704700BFD0FF0FE04A
:10303000074880470749084A084B9B1A40F3058018
:10304000043BC858D0503FF7FBAF0548004700008D
:103050004532000074EA000000000020F005002066
:1030600055010000FEE7FEE7FEE7FEE7FEE7FEE7AC
:10307000FEE7FEE7FEE7FEE7FEE7FEE7FEE7FEE728
:10308000FEE7FEE7FEE7FEE7FEE7FEE7FEE7FEE718
:10309000FEE7FEE7FEE7FEE7FEE7FEE7FEE7FEE708
:1030A000FEE7FEE7FEE7FEE7FEE7FEE7FEE7FEE7F8
:1030B000FEE7FEE7FEE7FEE7FEE7FEE7FEE7FEE7E8
:1030C000FEE7FEE7FEE700BF80B400AF044BDB6C19
:1030D0001B0EDBB21846BD465DF8047B704700BF8F
:1030E000B081E00F80B582B000AF00F01FF87860CB
:1030F000074B5B6803F00F037A6822FA03F37B60E7
:10310000044B7A681A607B6818460837BD4680BD54
:1031100000800C406008012080B400AF024B1846CC
:10312000BD465DF8047B7047006CDC0280B582B060
:1031300000AF334BDB6A03F47053B3F5805F0AD002
:10314000B3F5005F03D0B3F5006F08D00BE02D4B53
:103150001B687B6047E04FF400437B6043E02A4BF1
:103160001B687B603FE0264BDB6803F4E063B3F54C
:10317000007F1BD0B3F5007F05D8002B24D0B3F51A
:10318000807F16D02BE0B3F5806F09D0B3F5A06F28
:1031900003D0B3F5407F06D021E01C4B7B6021E0DB
:1031A0001B4B7B601EE01B4B7B601BE01A4B7B6064
:1031B00018E0FFF789FF0346122B02D9174B7B60FB
:1031C00010E0174B7B600DE0FFF77EFF0346122BEC
:1031D00002D9144B7B6005E0134B7B6002E00023B7
:1031E0007B6000BF00BF064B1B6803F4E0339B0B02
:1031F00001337A68B2FBF3F318460837BD4680BD49
:1032000000800C401400002010000020003FAB01A3
:10321000406F4001809FD500C0D8A70040B5640032
:10322000C0CF6A00804F120040420F0080B400AF50
:10323000034B1B681846BD465DF8047B704700BF12
:103240001000002080B400AFBD465DF8047B7047DD
:1032500080B400AF4FF400431846BD465DF8047BD0
:10326000704700BF80B400AF4FF47A731846BD4674
:103270005DF8047B704700BF80B400AF034B1B6850
:103280001846BD465DF8047B704700BF140000205F
:1032900080B400AF72B6084B1B68B3F1FF3F04D097
:1032A000054B1B685A1C044B1A60034B1B681846DD
:1032B000BD465DF8047B7047FC07012080B483B0F5
:1032C00000AF0C4B1B68002B0DD00A4B1B685A1E1D
:1032D000084B1A60074B1B687B607B68002B00D192
:1032E00062B67B6800E0002318460C37BD465DF8E7
:1032F000047B7047FC070120F8B500AF154B1B6835
:10330000D3F83A301846144909F0E4FB0346002B81
:1033100004D1124800F026F8034619E0104B1A6851
:103320000E4B14461D4604F1300C2E4623461868F9
:1033300059689A68DB680FC6103410356445F4D1BB
:103340002B4622461068516803C312891A80002355
:103350001846F8BD58000020289BF23D18000020B8
:103360005C000020F0B595B000AF7860FFF790FFEB
:103370003F4B7A6814461D4604F1300E2E46234614
:10338000186859689A68DB680FC6103410357445A0
:10339000F4D12B4622461068516803C312891A8063
:1033A00007F10C024023104600211A460AF087F864
:1033B0007B681C4607F10C0504F1300E2E462346AF
:1033C000186859689A68DB680FC610341035744560
:1033D000F4D12B4622461068516803C312891A8023
:1033E000244BC7F84630002387F84F30224B1B6828
:1033F000002B2ED006F026F84FF47F200AF0B8FEFE
:103400000346002B14BF0023012387F84F3097F8A1
:103410004F30002B0ED007F10C034FF47F201946DC
:1034200040220AF09DFE0346002B14BF0023012317
:1034300087F84F3006F064F897F84F3083F00103B7
:10344000DBB2002B05D00C4B00221A600B4B002284
:103450001A60FFF733FF97F84F30002B01D000239D
:1034600001E04FF0FF3318465437BD46F0BD00BFB2
:1034700018000020289BF23D580000205C0000202E
:1034800080B483B000AF0346FB71084B97F9072067
:103490005209F97901F01F01012000FA01F143F806
:1034A00022100C37BD465DF8047B704700E100E058
:1034B00080B483B000AF03463960FB7197F90730E1
:1034C000002B0BDA0D49FB7903F00F03043B3A683C
:1034D000D2B25201D2B20B441A7609E0084997F9E8
:1034E00007303A68D2B25201D2B20B4483F80023BB
:1034F0000C37BD465DF8047B704700BF00ED00E06F
:1035000000E100E080B483B000AF03463960FB7196
:10351000FB79002B0DD0FB79012B0AD0FB79022B14
:1035200007D0FB79032B04D0FB79042B01D0FB7966
:10353000052B0948FA793B68012101FA03F3194682
:103540001346DB0013449B000344103359600C37CF
:10355000BD465DF8047B70470060004080B483B0D6
:1035600000AF03463960FB71FB79002B0DD0FB796E
:10357000012B0AD0FB79022B07D0FB79032B04D057
:10358000FB79042B01D0FB79052B0948FA793B68BC
:10359000012101FA03F319461346DB0013449B0093
:1035A0000344103319600C37BD465DF8047B704747
:1035B0000060004080B584B002AF39600146F97107
:1035C000BA717B71FA79BB7979790091397C019173
:1035D000104639683A68FFF78FFB0837BD4680BD53
:1035E00080B483B000AF786039607B683A681A6253
:1035F0000C37BD465DF8047B704700BF80B483B0D4
:1036000000AF786039607B685A693B681A437B6811
:103610005A610C37BD465DF8047B704780B483B0B7
:1036200000AF786039607B683A689A610C37BD46B4
:103630005DF8047B704700BF80B483B000AF786052
:1036400039607B68DA683B68DB431A407B68DA6084
:103650000C37BD465DF8047B704700BF80B582B073
:1036600000AF78600348796806F024F90837BD4652
:1036700080BD00BF008008402DE9B04386B000AF98
:1036800008233B7400237B740323BB7400233B7526
:103690000020FEF711F90346FB7400237B7500231D
:1036A0003B7100237B7302237B710123BB714FF4B9
:1036B0007063BB600323FB710023BB7300233B7368
:1036C0000123FB7307F110033A481946FDF7B8FFD1
:1036D0003B1D38481946FDF7F7FF3748FEF708FD50
:1036E00002463B7D0133B2FBF3F3184608F0A8FB1A
:1036F00004460D467B79184608F0A2FB02460B46AD
:103700004FF000004FF0804107F018F902460B46D9
:10371000104619464FF00002284B08F055FA0246B1
:103720000B46904699463B7C0133184608F098FBBF
:1037300002460B464FF000004FF0804107F0FEF8C4
:1037400002460B464046494608F0F0FB02460B464F
:103750002046294608F014FD02460B46104619463D
:1037600008F07EFE0246164B1A60154B1B68184681
:1037700008F076FB02460B46104619464FF0000251
:10378000104B08F0FDFC02460B460F49C1E900232F
:1037900008480221FFF732FF0720FFF771FE0720DC
:1037A0000421FFF785FE064B1B6818461837BD46F7
:1037B000BDE8B08300200040000205000000284062
:1037C00068080120000010407008012080B588B012
:1037D00000AF0346FB710023BB760B233B7600232F
:1037E0007B760020FEF768F80346FB7600233B77E4
:1037F00000237B770123BB730323FB7308237B73B5
:103800000023FB74FB793B7407F118030D4819463C
:10381000FDF716FF07F10C030A481946FDF7A4FF50
:1038200008480121FFF7DCFE06480121FFF7E6FE0C
:103830000720FFF725FE07200421FFF739FE203778
:10384000BD4680BD0020004080B584B000AF7860E8
:103850007B68FB60FB6803F0010300200C2104225D
:10386000FFF7B0FAFB6803F0020300200D210422E9
:10387000FFF7A8FAFB6803F00403022004210422E6
:10388000FFF7A0FAFB6803F00803022005210422D9
:10389000FFF798FA1037BD4680BD00BF80B584B0F1
:1038A00000AF78607B68FB60FB6803F00103002BCE
:1038B00004D000200C21FFF751FE03E000200C2172
:1038C000FFF720FEFB6803F00203002B04D000206A
:1038D0000D21FFF743FE03E000200D21FFF712FE4C
:1038E000FB6803F00403002B04D002200421FFF73F
:1038F00035FE03E002200421FFF704FEFB6803F01D
:103900000803002B04D002200521FFF727FE03E067
:1039100002200521FFF7F6FD1037BD4680BD00BF30
:1039200080B584B000AF02460B46FA80BB80FA88AF
:1039300047F21A639A4203D94B4B00221A7007E0F0
:10394000FA8847F2AF239A4202D8474B01221A70F5
:10395000FA8845F6E9739A4230D8444B01221A702E
:1039600007233B7300237B730023BB7307F10C0316
:103970001846032100F0B2FA4FF47A7001F030FFDC
:1039800009233B7200237B720023BB7207F10803FB
:103990001846032100F0A2FA35480121FFF74CFE3A
:1039A00034480121FFF748FE3148FDF71DFD4FF077
:1039B000402004F0A9FD00F053FD1EE02B4B1B78C6
:1039C000DBB21A46F98846F2BD63994294BF0023E0
:1039D0000123DBB21340002B0FD003200821082263
:1039E0000023FFF7EFF94FF47A7001F0F9FE03209E
:1039F000082101220023FFF7E5F9B7F9042041F27D
:103A000088339A4207DD0220072108220023FFF7AE
:103A1000D9F9002323E0B7F90430B3F5FA7F07DAC8
:103A20000220072108220023FFF7CCF9002316E02B
:103A30000D4B1B78DBB283F00103DBB2002B07D008
:103A40000220072108220023FFF7BCF9002306E02B
:103A50000220072108220123FFF7B4F901231846A9
:103A60001037BD4680BD00BF600000205007002019
:103A70000010004000140040B0B58AB000AFF860FC
:103A80007B600B46FB721346BB72164B07F11004AA
:103A90001D460FCD0FC495E8030084E80300012301
:103AA00087F8243001237B770023FB760723BB763E
:103AB00001237B7607F11003F8681946FDF7E0FC57
:103AC000FA7ABB7AF86811461A46FDF7B3FCF86833
:103AD000FDF76EFCF8680321FFF7A0FD2837BD460F
:103AE000B0BD00BF98E2000080B586B000AF78603E
:103AF000396000233B7300237B730123BB730023D6
:103B0000FB7300233B7400237B740023BB740023EE
:103B1000FB7400233B7500237B7500233B7200235D
:103B20007B720023BB720023FB7201237B73032390
:103B3000BB730023FB7301233B7207F10C034FF0AF
:103B40004020194604F046FC07F108034FF04020DE
:103B50001946002204F0A6FC07F108034FF04020AC
:103B60001946012204F09EFC4FF040237A68126847
:103B70001A624FF0402300225A623B681B780448C7
:103B80000C211A460223FFF777FF1837BD4680BD88
:103B900000100040B0B588B002AF284B3C461D462F
:103BA0000FCD0FC495E8030084E8030005233B70A4
:103BB0000023FB814FF480533B8205237B734FF43A
:103BC000E133BB60042000210A220023FFF7FAF84A
:103BD0000420012101220023FFF7F4F8022008212C
:103BE00001220023FFF7EEF8022009210A22012317
:103BF000FFF7E8F800200E210A220123FFF7E2F880
:103C00003B460F48194605F06BFD0D4B0C4A526DB3
:103C100022F4E06242F480725A65094B084A526D00
:103C200042F003025A65002300930220082101227A
:103C30000123FFF7BFFC1837BD46B0BDB0E200005E
:103C400000E0004080B500AF0320202101F080FC9F
:103C500080BD00BF80B584B000AF074A3B1D10682F
:103C6000516803C3127A1A703B1D1846FFF7F6FC21
:103C70001037BD4680BD00BFC8E2000080B483B0ED
:103C800000AF78604FF06043D3F8803E03F001034B
:103C9000002B13D04FF06043D3F8003E03F0010334
:103CA000002B0BD000E000BF4FF060431B68002BDF
:103CB000F9D04FF060437A68D2B21A707B68184628
:103CC0000C37BD465DF8047B704700BF80B582B0FD
:103CD00000AF0346FB71FB791846FFF7CFFF0346A1
:103CE00018460837BD4680BD80B400AF0023184693
:103CF000BD465DF8047B704780B400AF2C4B2C4A66
:103D0000526C42F400525A642A4B2A4AD2F82021BB
:103D100042F00402C3F82021264B264AD2F8202183
:103D200022F44072C3F82021224B224AD2F8B82054
:103D300022F47062C3F8B8201E4B1E4AD2F8B82095
:103D400042F48062C3F8B820194B10221A6200BFF7
:103D5000174BDB6A03F02003002BF9D0164B164AF1
:103D6000126842F001021A60134B134AD26842F003
:103D70008072DA60114B124A1A60124B0F221A61DC
:103D8000104B0222C3F8F0200E4B4FF48072C3F8A0
:103D900004234FF060430C4AC3F8B02F4FF0604348
:103DA0000A4AC3F8802EBD465DF8047B704700BF09
:103DB00000800C4000600040F0ED00E0001000E0EA
:103DC000FF130140000004E055CEACC5090001001E
:103DD00080B584B000AF786039600E487E2105F070
:103DE00031FD0023FB600AE0FB687A6813441B780E
:103DF0000848194605F026FDFB680133FB60FA68A8
:103E00003B689A42F0DB03487E2105F01BFD10372A
:103E1000BD4680BD00E0004080B588B000AFF860CE
:103E2000B9607A60F868B96800F084FF0346FB82E5
:103E3000BB68FA681344FA8AD2B21A70BB680133BD
:103E4000FA681344FA8A120A92B2D2B21A700023A4
:103E5000FB610023BB6137E0FB69FA6813441B7800
:103E60007E2B0ED1BB697A6813447D221A70BB6920
:103E700001337A6813445E221A70BB690233BB6156
:103E80001FE0FB69FA6813441B787D2B0ED1BB69D8
:103E90007A6813447D221A70BB6901337A6813442F
:103EA0005D221A70BB690233BB610AE0BB697A68A4
:103EB0001344FA69F9680A4412781A70BB6901332D
:103EC000BB61FB690133FB61BB689A1CFB699A42C9
:103ED000C2DCBB6918462037BD4680BD80B5EAB05C
:103EE00000AF3B1D18600A46FB1C1A70FB1C1B78B8
:103EF00007F586713A1D084611681A4609F0D6FA88
:103F0000FB1C1B78033BDBB287F80D31574B1B784A
:103F10009A00574B1B781344DBB25B00DBB287F887
:103F20000E31FB1C1A7807F5867107F10803084665
:103F300011461A46FFF770FFC7F89001FB1C1B786B
:103F40003A1D1068194601F07FFC4A4B1B68002B94
:103F500004D1FFF7D1FE474B01221A60464847497A
:103F6000922209F009FB434B1B68002B04D1FFF799
:103F7000C3FE404B01221A603B1D1B681B7819468B
:103F80003B1D1B6801331B781A463B1D1B6802331F
:103F90001B783B4809F0F0FA07F108031846D7F8F8
:103FA0009011FFF715FF374B1B78002B03D0002330
:103FB000C7F8A43108E14FF00002334B07F5CC718C
:103FC000C1E900232B4B1B68002B04D1FFF794FEA3
:103FD000284B01221A60284828499E2209F0CCFA71
:103FE000244B1B68002B04D1FFF786FE214B0122D6
:103FF0001A603B1D1B681B7819463B1D1B6801336B
:104000001B781A463B1D1B6802331B781F4809F0BA
:10401000B3FA07F5CC73D3E9000108F021FA03469F
:10402000184601F09DFFC7F8A401124B1B68002B36
:1040300004D1FFF761FE0F4B01221A600E480F49B1
:10404000A02209F099FA0B4B1B68002B04D1FFF753
:1040500053FE084B01221A600D48D7F8A41109F04D
:104060008BFA0023C7F89431A5E000BF6800002058
:104070006900002054070020D4E2000050E3000053
:10408000E0E200005807002000408F40FCE2000002
:104090001CE30000594B1B68002B04D1FFF72CFEDA
:1040A000564B01221A6056485649A62209F064FA76
:1040B000524B1B68002B04D1FFF71EFE4F4B012211
:1040C0001A603B1D1B681B7819463B1D1B6801339A
:1040D0001B781A463B1D1B6802331B784A4809F0BF
:1040E0004BFA07F108031846D7F89011FFF770FE56
:1040F00007F5CC73D3E900014FF00002434B07F002
:1041000015FF02460B4607F5CC71C1E900233B4B76
:104110001B68002B04D1FFF7EFFD384B01221A601A
:1041200037483849A92209F027FA344B1B68002B7D
:1041300004D1FFF7E1FD314B01221A603B1D1B68E2
:104140001B7819463B1D1B6801331B781A463B1D23
:104150001B6802331B782E4809F00EFA07F5CC7362
:10416000D3E9000108F07CF90346184601F0F8FE97
:10417000C7F8A401214B1B68002B04D1FFF7BCFD3D
:104180001E4B01221A601E481E49AB2209F0F4F9A9
:104190001A4B1B68002B04D1FFF7AEFD174B012211
:1041A0001A601C48D7F8A41109F0E6F9D7F8943141
:1041B0000133C7F89431D7F8A431002B04D0D7F8D5
:1041C0009431022B7FF766AF134B00221A70134B0A
:1041D0001B78002B0CBF00230123DBB283F001030B
:1041E000DBB203F00103DAB20C4B1A70D7F8A4313A
:1041F000184607F5D477BD4680BD00BF54070020A0
:10420000D4E2000050E3000028E300000000F83F83
:10421000FCE200001CE300006800002069000020B0
:1042200080B588B000AF786000237B6100233B83BA
:104230007B681B783B757B6802331B7843F0010376
:10424000DBB2BB750423FB6107F1140207F108031D
:104250001046F9691A46FFF7DFFDF86107F1080318
:104260001846F969FFF7B4FD2037BD4680BD00BF91
:1042700080B586B000AF786039603B68062B01DC02
:1042800000236FE07B681B787E2B6AD13B68013B83
:104290007A6813441B787E2B63D101237B61002352
:1042A0003B6132E07B697A6813441B787D2B1ED119
:1042B0007B6901337A6813441B785D2B05D13B6918
:1042C0007A6813447D221A700DE07B6901337A68A5
:1042D00013441B785E2B05D13B697A6813447E2218
:1042E0001A7000E016E07B6901337B6107E03B69EF
:1042F0007A6813447A6979680A4412781A703B69BB
:1043000001333B617B6901337B613B685A1E7B69EA
:104310009A42C7DC3B685A1E7B699A4201DD002342
:1043200020E03B69023B3B603B6801337A68134401
:104330001B78FB81FB891B029AB23B6879680B44AE
:104340001B781344FB817868396800F0F3FC03465E
:10435000BB81FA89BB899A4201D13B6802E0002304
:1043600000E0002318461837BD4680BDF0B5B9B04F
:1043700008AF01F05FFAC7F8BC0001F04DFA024641
:104380000B46C7E92423012387F89830002387F8D8
:104390009930D7F8BC301B78C7F89C300123C7F898
:1043A000A0300123C7F8A4304FF0FF33C7F8A8307E
:1043B0000023C7F8AC300023C7F8B0303E466C4647
:1043C00007F198050FCD0FC495E80F0084E80F00A2
:1043D00007F190030CCB3046002101F063FC03464B
:1043E000002B14BF0023012387F8BB3097F8BB30A4
:1043F000002B01D03B7901E04FF0FF331846C43762
:10440000BD46F0BD80B584B000AF0346FB71124BD2
:104410001B78FB73104B01221A70104B1B68002B8A
:1044200013DB16233B7201237B720223BB720B4BFF
:104430001B68DBB2FB7207F1080318460421FFF783
:104440004DFD064B4FF0FF321A60034BFA7B1A709A
:104450001037BD4680BD00BF580700206400002013
:1044600080B500AF0020FFF7CDFF80BD80B58CB0D8
:1044700000AF0346FB7105237B620020FFF7C2FFFC
:104480004FF0FF333B624FF47A73FB620023BB6251
:104490004DE02F4A07F118031068186007F1180360
:1044A00018460421FFF71AFDFFF760FF38623B6AE8
:1044B000002B2DDB17233B7403237B740223BB7477
:1044C0003B6ADBB2FB74F0233B75B9237B7507F1C4
:1044D000100318460621FFF701FDF861FB69002B68
:1044E00003D11C4B3A6A1A6025E016233B73012363
:1044F0007B730223BB733B6ADBB2FB7307F10C03D4
:1045000018460421FFF7EAFC124B4FF0FF321A6005
:104510007B6A5A1EBB6A9A4203DDFB6A184601F0A9
:104520005FF9FB6A5B00FB62BB6A0133BB62BA6A7C
:104530007B6A9A42ADDB074B1B68002B01DB002333
:1045400001E04FF0FF3318463037BD4680BD00BF55
:1045500048E300006400002080B500AF0020FFF7B2
:1045600085FF0346184680BDF0B5C1B008AF4FF0D7
:104570007F53C7F8D030002387F8DF3001F006FA08
:10458000C7E932014FF47A73C7F8D8300023C7F86F
:10459000D43056E0504A3B1D106818603B1D184649
:1045A0000421FFF79BFCD7F8D860D7E93223C7E98D
:1045B0002623012387F8A030002387F8A1300223A7
:1045C000C7F8A4300B23C7F8A8300123C7F8AC30D4
:1045D0004FF0FF33C7F8B0300023C7F8B4300023E2
:1045E000C7F8B83007F1080E6C4607F1A0050FCDEB
:1045F0000FC495E80F0084E80F0007F198030CCB77
:104600007046314601F04EFB0346002B14BF0023D9
:10461000012387F8DF30D7F8D80008F06FF8034699
:104620001846D7F8D01008F0C1F80346184608F02D
:10463000A9FA0346C7F8D830D7F8D4300133C7F801
:10464000D430D7F8D430022B06DC97F8DF3083F073
:104650000103DBB2002B9DD197F8DF30002B01D096
:104660007B7B01E04FF0FF33C7F8C430D7F8C4308C
:10467000012B05DDD7F8C430052B01DC012300E058
:10468000002387F8C33097F8C33003F0010387F89D
:10469000C33097F8C33083F00103DBB2002B14D092
:1046A0000E4B4FF0FF321A6003200821082200232E
:1046B000FEF788FB4FF47A7001F092F8032008218E
:1046C00001220023FEF77EFB03E0FFF7C9FEFFF7A0
:1046D00043FFE437BD46F0BD4CE30000640000201A
:1046E00090B5A3B002AF78607B687B677B6F1B7867
:1046F0003B673B6F0D3B192B00F2988101A252F8EA
:1047000023F000BF434800002D4A00006D47000021
:104710002D4A00002D4A00002D4A00002D4A0000BD
:104720002D4A00002D4A00002D4A00002D4A0000AD
:104730002D4A0000D94800002D4A00002D4A0000F3
:104740002D4A00002D4A00002D4A00002D4A00008D
:104750002D4A00002D4A00002D4A00002D4A00007D
:104760002D4A00002D4A00002D4A00007B6F0533C2
:104770001B781A027B6F06331B781344082B2FD04B
:10478000082B06DC022B19D0042B56D0012B0CD0A1
:104790004CE1202B39D0202B02DC102B23D045E11B
:1047A000802B4CD0B3F5807F4AE0FFF759FEA14B38
:1047B00001221A70A04B01221A7041E0FFF750FE4F
:1047C000082387F85C30002387F85D30002387F8E2
:1047D0005E3007F15C0318460321FFF77FFB2FE0F3
:1047E000FFF73EFE2CE0FFF73BFE082387F858302A
:1047F000002387F85930002387F85A3007F158030F
:1048000018460321FFF76AFB1AE0FFF7A5FE0346EF
:10481000002B0FDA082387F85430002387F855302F
:10482000002387F8563007F1540318460321FFF799
:1048300055FB05E0FCF72AFA02E000BFF6E000BFF6
:10484000F4E007F14803FB660023FB670DE0FB6F14
:10485000C3F10703FA6E1344FA6F0732796F0A4403
:1048600012781A70FB6F0133FB67FB6F072BEED9D1
:104870000023BB670DE0BB6FC3F10B03FA6E13445B
:10488000BA6F0F32796F0A4412781A70BB6F013316
:10489000BB67BB6F032BEED9684B1B78DBB2002BD9
:1048A00006D0674B01221A70644B00221A7009E08F
:1048B0007B68D3E922013B6D009307F148030CCBE1
:1048C00002F06EFB5F4B1C4607F1480307CB2060EC
:1048D0006160A26000BFA9E01623BB667B68D3F8C5
:1048E00080305A1EBB6ED31A7B667B68D3F880205B
:1048F000BB6E01339A42C0F29880BB6E7A6F13444C
:104900001B783B663B6E082B00F28F8001A252F8A9
:1049100023F000BF394900006949000061490000E7
:104920002B4A0000CF490000774900008F49000062
:10493000ED4900000B4A00007B6E002B05D10320DF
:10494000082108220023FEF73DFA4FF47A7000F0A8
:1049500047FF0320082101220023FEF733FA64E019
:104960007B6E002B00D160E07B6E002B02D1FCF748
:104970008DF95AE059E07B6E002B07D1324B1B6852
:10498000042019463A2200F00BF94EE04DE07B6E10
:104990003A2B1BD1BB6E01337A6F134407F10C0223
:1049A000104619463A2208F081FD07F10C0318461B
:1049B000FEF7D8FC244B1B6803F12C02224B1B682A
:1049C000343310461946FFF78FF82EE02DE0FBF741
:1049D000F7FD034683F00103DBB2002B05D07B6EAD
:1049E000002B02D1FBF7CEFE1FE01EE0FBF7E8FD37
:1049F000034683F00103DBB2002B05D07B6E002B56
:104A000002D102F019FC10E00FE0FBF7D9FD0346DC
:104A100083F00103DBB2002B06D07B6E0B2B03D19E
:104A2000786802F029FDFFE700BF00BF8437BD466C
:104A300090BD00BF680000206900002040070020F2
:104A40003E0700207C98012094E20000F0B5C3B03E
:104A500008AFB9607B600346FB731346BB73012349
:104A600087F8E7307B68002B01D14A4B7B607B687D
:104A70001A884FF6FF739A4202D17B6800221A808F
:104A80007B681A88444B1A800023C7F8D43068E04A
:104A9000FA7BBB7B1046B9681A4600F081F8D7F85C
:104AA000D430002B03D100F0B7FEC7E936013B4BF1
:104AB0001B68002B50DB7B681B88DBB2C7F8A0307B
:104AC0007B681B881B0A9BB2C7F8A430D7E9362342
:104AD000C7E92A23012387F8B030002387F8B130D3
:104AE0002523C7F8B4300323C7F8B8300023C7F82C
:104AF000BC304FF0FF33C7F8C0300223C7F8C430D2
:104B000007F1A003C7F8C83007F110066C4607F19B
:104B1000B0050FCD0FC495E80F0084E80F0007F132
:104B2000A8030CCB30464FF47A7101F0BBF8034672
:104B3000002B14BF0023012387F8D33097F8D3301C
:104B4000002B06D07B7D002B0CBF00230123DBB2A2
:104B500000E0022387F8E730D7F8D4300133C7F8F4
:104B6000D43097F8E730012B03D1D7F8D430092B94
:104B70008ED9094B4FF6FF721A807B681B88013370
:104B80009AB27B681A8097F8E7301846EC37BD4632
:104B9000F0BD00BF5A0700206A000020640000201A
:104BA0002DE9F04387B000AF396013460246FA7131
:104BB000BB716B461E46BB793B61BB7901331A461C
:104BC0004FF000034FEAC30949EA52794FEAC2089D
:104BD000BB7901331A464FF00003DD0045EA5275F8
:104BE000D400BB7901330733DB08DB00ADEB030DE9
:104BF0006B460033FB6000237B6107E0FA687B694A
:104C0000134400221A707B6901337B617B69002B9E
:104C1000F4DBFB68FA791A70FB685A1CBB79104602
:104C200039681A4608F042FCFA68BB790133DBB2F6
:104C30001046194600F006F8B5461C37BD46BDE8DB
:104C4000F08300BFF0B585B000AF7860F9702849F7
:104C50000968002949DB69460E46F9781931F9607F
:104C6000F9781A3108464FF00001CD0045EA507539
:104C7000C400F9781A3108464FF00001CB0043EA2E
:104C80005073C200FB781A330733DB08DB00ADEB4F
:104C9000030D6B460033BB60BB68184615491822EC
:104CA00008F004FC144B1B88DAB2BB681A76124B6E
:104CB0001B881B0A9BB2DAB2BB685A76BB6803F149
:104CC0001A02FB78104679681A4608F0EFFB084B89
:104CD0001B68DAB2BB68DA70BA68FB781A33DBB2E9
:104CE00010461946FFF7FAF8B5461437BD46F0BD31
:104CF0006400002064E300006A00002080B483B0F8
:104D000000AF02460B46FA807B71FB881B0A9AB201
:104D1000F9887B794B40D9B2054B33F811305340B9
:104D20009BB218460C37BD465DF8047B704700BF48
:104D30007CE3000080B584B000AF786039604FF646
:104D4000FF73FB810023BB600DE07A68BB681344EE
:104D50001B78FA8910461946FFF7D0FF0346FB81FE
:104D6000BB680133BB603A68BB689A42EDD8FB89E7
:104D7000DB439BB218461037BD4680BD80B400AF00
:104D8000034B1B681846BD465DF8047B704700BFA7
:104D90005C07002080B400AF034B1B681846BD467B
:104DA0005DF8047B704700BF7808012090B597B08C
:104DB00002AFF861B9617A6107F124031846796995
:104DC000252208F073FB07F12403FB64BB69002B69
:104DD00014BF0023012387F84B3097F84B30002B8A
:104DE00003D0FB6C9B889AB201E04FF6FF72374804
:104DF000F9690B46DB000B445B000344A3F8012078
:104E000097F84B30002B03D0FB6CDB889AB201E0A3
:104E10004FF6FF722D48F9690B46DB000B445B002F
:104E20000344A3F8032097F84B30002B10D02749F8
:104E3000FA691346DB0013445B000B44FA6C05333C
:104E40001832106851689268186059609A6018E0CA
:104E50001E49FA691346DB0013445B00CC183B463D
:104E60000022009218464FF000024FF0000302F0BB
:104E70001BFF631D3A4610685168926818605960BC
:104E80009A6097F84B30002B03D0FB6C93F82420EA
:104E900000E000220D48F9690B46DB000B445B0083
:104EA000034410335A7097F84B30002B01D0002286
:104EB00000E003220548F9690B46DB000B445B0068
:104EC00003441A705437BD4690BD00BF7C080120D2
:104ED00080B586B000AFF860B9607A60FFF75AFF1E
:104EE00003461A68BB685902124B1B689B030B44AC
:104EF00013447B61786904F019FE034613F1030F34
:104F00000ED1786904F096FE0B49FA681346DB006F
:104F100013445B000B4402221A704FF0FF3305E08C
:104F2000F868B9687A68FFF741FF00231846183718
:104F3000BD4680BD5C0700207C08012080B58AB09A
:104F400000AFF860B9601346FB715B4B1B78002B18
:104F500002D1FB79002B0DD05848FF214FF480423D
:104F600008F0ADFA56480021202208F0A8FA524B6A
:104F700000221A7001237B62FB685A024F4B1344D4
:104F80001846B9684FF4007208F090FA4C4AFB6872
:104F9000134401221A704B4B1B68002B02DA4FF0AE
:104FA000FF3385E0FFF7F6FE03461A68454B1B68A2
:104FB0009B031344BB61FB79002B08D0B86904F054
:104FC000B5FD034613F1030F01D1012300E00023D7
:104FD00087F8233097F8233003F0010387F8233054
:104FE00097F8233083F00103DBB2002B34D0002389
:104FF000FB612DE0FA68FB6913447B61304A7B69F1
:1050000013441B78002B20D0FFF7C4FE03461A6818
:105010007B6959022B4B1B689B030B4413443B6178
:105020007B695A02254B13443869194604F088FFFE
:10503000034613F1030F14BF0023012387F8233025
:1050400097F82330002B00D006E0FB690133FB61A9
:105050007A6AFB699A42CDD897F82330002B15D095
:10506000B86904F0E7FD174B1A6817491346DB00CF
:1050700013445B000B4402221A700023FB602023C0
:105080007B620123FB7100F021F806E00D4B1B68E9
:105090001846F968BA68FFF789FE0A4B1B68002BAF
:1050A00004DB97F82330002B7FF47CAF054B1B68A3
:1050B00018462837BD4680BD6C00002060070020E0
:1050C000604700205C0700207C08012080B483B08A
:1050D00000AF244B1B68002B02DA224B1B683AE01E
:1050E000204B1B685A1C204B1340002B05DA013B58
:1050F0006FEA43536FEA535301331A46194B1A6050
:10510000184B1B687B6019E0164B1B685A1C164B2A
:105110001340002B05DA013B6FEA43536FEA535308
:1051200001331A460F4B1A600E4B1A687B689A427D
:1051300004D10C4B4FF0FF321A600AE0094B1A6899
:105140000A491346DB0013445B000B441B78022B17
:10515000DAD0044B1B6818460C37BD465DF8047B5B
:10516000704700BF5C070020FF0700807C0801201B
:105170002DE9F04395B000AF6B461E4605F0E0F90F
:10518000052004F02DFD04F029FC0246874B1A602F
:10519000864B1B689B68B3F1007F05D08448E421EF
:1051A000844A854B08F028F8804B1B685B69B3F58F
:1051B000804F05D07E48E5217E4A804B08F01CF8E0
:1051C0007A4B1B68DB68B3F5007F05D07848E62191
:1051D000784A7B4B08F010F8744B1B681B69BB6363
:1051E000724B1B68DB687B637A6BBB6B9A422CBF8C
:1051F000114619460B46013B3B630A464FF000033C
:105200004FEAC30949EA52794FEAC2080A464FF009
:105210000003DD0045EA5275D400CB1DDB08DB003E
:10522000ADEB030D6B460033FB62604B1B681B68E4
:10523000FB644FF0FF33BB644FF0FF337B644FF0F0
:10524000FF333B640023FB6399E0FB6AF86C19466B
:1052500004F008FEFB6A5B79FF2B0CBF00230123DF
:1052600087F82B3097F82B30002B09D05549FA6B73
:105270001346DB0013445B000B4402221A7075E0F6
:10528000FB6AF86C194604F03BFD0346002B09D07D
:105290004C49FA6B1346DB0013445B000B440122BC
:1052A0001A7063E0FB6A3A1D10461946252208F081
:1052B000FDF87B68012214461846434907F00AFCB2
:1052C0000346002B01D000231C46E3B219463D489B
:1052D000FA6B1346DB0013445B0003440A461A7062
:1052E0003849FA6B1346DB0013445B000B441B7810
:1052F000002B3BD139893348FA6B1346DB0013444A
:105300005B0003440A46A3F8012079892D48FA6B13
:105310001346DB0013445B0003440A46A3F8032052
:105320002849FA6B1346DB0013445B000B445C1DF9
:1053300007F11C0307CB20606160A260BB6C002BEF
:105340000EDB3B891A467B6C9A4209DC3B891A4684
:105350007B6C9A420AD17B891A463B6C9A4205DDE6
:105360003B897B647B893B64FB6BBB640F4B1B6895
:105370005B69FA6C1344FB64FB6B0133FB63FB6BEF
:10538000B3F5006FFFF461AFBB6C002B01DBBB6CAE
:1053900001E040F2FF730D4A1360FFF797FE7B6C4C
:1053A000B54618465437BD46BDE8F083780801205D
:1053B0007CE5000010E600008CE50000B4E500008C
:1053C000E4E500007C080120F3C83B3F5C070020B7
:1053D00080B483B000AF0346FB71084B97F90720F8
:1053E0005209F97901F01F01012000FA01F143F897
:1053F00022100C37BD465DF8047B704700E100E0E9
:1054000080B483B000AF0346FB71094B97F90720C6
:105410005209F97901F01F01012000FA01F160320F
:1054200043F822100C37BD465DF8047B704700BF7F
:1054300000E100E080B400AF054B054A126922F09C
:1054400004021A6130BFBD465DF8047B704700BF9F
:1054500000ED00E080B400AF034B5B681846BD462A
:105460005DF8047B704700BF0000084080B483B043
:1054700000AF7860034B7A689A610C37BD465DF8DF
:10548000047B70470000084080B483B000AF7860B0
:10549000054B054AD1697A68D2430A40DA610C3774
:1054A000BD465DF8047B70470000084080B483B0BF
:1054B00000AF7860054B054AD1697A680A43DA6122
:1054C0000C37BD465DF8047B704700BF0000084004
:1054D00080B400AF72B6084B1B68B3F1FF3F04D035
:1054E000054B1B685A1C044B1A60034B1B6818467B
:1054F000BD465DF8047B7047FC07012080B483B093
:1055000000AF0C4B1B68002B0DD00A4B1B685A1EBA
:10551000084B1A60074B1B687B607B68002B00D12F
:1055200062B67B6800E0002318460C37BD465DF884
:10553000047B7047FC07012080B400AF034B0122BD
:105540001A70BD465DF8047B704700BF8947002094
:1055500080B584B000AF03463960FB71184B01225F
:105560001A7018480121FCF757FDFB7916481946B7
:10557000FCF758FF15483968FCF736FC1348FCF770
:10558000B7FD0246124B1A6010480121FCF744FD9A
:1055900000233B7300237B730023BB7307F10C03D1
:1055A0001846FDF7E3FC0720FFF76EFF1E20FFF70C
:1055B00027FF1E20FFF70CFF1037BD4680BD00BF40
:1055C0008847002000430200020018006016100007
:1055D0008C47002080B500AFFFF73CFF0246094B27
:1055E0001A600020FDF7B2FC0220FFF73FFF022007
:1055F000FFF74AFF044B1B68002B02D0024B1B68CD
:10560000984780BD804700208447002080B582B045
:1056100000AF786039600020FDF798FC114B1B78D3
:10562000002B03D103202021FFF792FF0E4B3A6895
:105630001A600220FFF71AFF0C4B1B687A6802FB06
:1056400003F20B4BA3FB02139B0900201946FDF745
:1056500057FC0120FDF77AFC0220FFF727FF0837EF
:10566000BD4680BD88470020844700208C4700202D
:10567000D34D621090B589B000AFF860B9607A6020
:10568000514B00221A705148FCF732FDF861B8689E
:105690004F49FFF7BBFF55E07B68022B06D0032B79
:1056A00008D0012B0AD1FFF7C5FE08E00120FDF765
:1056B000BFF904E00120FDF709FA00E000BFFA6835
:1056C000BB689A423ED2FFF703FF3F4B1B78DBB229
:1056D000002B02D03F4B1B6802E0FFF7BBFE0346E6
:1056E000BB61FFF70BFFB86907F008F80446F869DB
:1056F00007F004F803462046194607F00BF9034665
:105700001846354907F052F80346184606F0BAFB2A
:1057100002460B46104619464FF000022F4B06F08A
:1057200053FA02460B461046194606F0C1FE0246E1
:10573000FB689A4234BF00230123FB75FB7D002BDD
:1057400000D007E0204B1B78DBB283F00103DBB213
:10575000002BA1D1FFF7BCFE1B4B1B78DBB283F003
:105760000103DBB2002B01D0FFF734FFFFF7C6FEC9
:10577000184B1B68184606F0C1FF0446F86906F08E
:10578000BDFF03462046194607F0C4F803461846F5
:10579000114907F00BF80346184606F073FB024662
:1057A0000B46104619464FF000020C4B06F00CFA5F
:1057B00002460B461046194606F07AFE0346184686
:1057C0002437BD4690BD00BF8947002060161000F9
:1057D000395500008047002000007A440000E03F77
:1057E00080B582B000AF7860786879680122FFF7F1
:1057F00041FF0837BD4680BD80B582B000AF7860FC
:105800003960786839680122FFF734FF034618468B
:105810000837BD4680BD00BF80B400AF044BD3E95C
:10582000002310461946BD465DF8047B704700BF53
:10583000D852002080B400AF024B1846BD465DF838
:10584000047B7047E052002080B582B000AF7860E2
:105850003960074BD3E900230649C1E90023064814
:1058600079683A6807F022FE0837BD4680BD00BF60
:1058700090470020D8520020E052002080B582B02E
:1058800000AFC7E90001D7E90023104619464FF0E1
:1058900014024FF0000307F095F913461846083735
:1058A000BD4680BD80B582B000AFC7E90001D7E931
:1058B0000001FFF7E3FF02461346DB0013441B0120
:1058C00003F10802024B134418460837BD4680BD59
:1058D0009047002090B587B002AF78603960264BC2
:1058E000D3E9002310461946FFF7DCFFF860224B8E
:1058F000D3E90023501C43F100011F4CC4E900010F
:10590000F968C1E92223FA683B68104679681A46AB
:1059100007F0CCFDFB683A68C3F88020174B1B6882
:10592000002B04D1FEF7E8F9144B01221A60144849
:1059300014494B2207F020FE104B1B68002B04D1AA
:10594000FEF7DAF90D4B01221A600B4BD3E9002365
:105950001346013B19467B681B781A467B68013366
:105960001B787868023000780090074807F004FE42
:105970001437BD4690BD00BF90470020540700205B
:105980001CE60000FCE6000028E6000080B485B0BC
:1059900000AF0D4BD3E90023C7E902230A4BD3E93B
:1059A0000023C7E90023D7E90201D7E90023994280
:1059B00008BF9042EDD1D7E90223104619461437AB
:1059C000BD465DF8047B70479047002080B582B0EB
:1059D00000AFFFF7DBFFC7E90001D7E90023002B89
:1059E00008BF142A04D24FF000024FF0000304E075
:1059F000D7E90023143A43F1FF331046194608371C
:105A0000BD4680BD80B586B000AFC7E902017A60AF
:105A1000D7E90201FFF746FF78617B69D3E92201EC
:105A2000D7E90223994208BF904202D04FF0FF33DA
:105A300016E07A687B6911461A469023084611469B
:105A40001A4607F033FD7B69D3E92201D7E9022327
:105A5000994208BF904202D04FF0FF3300E000238C
:105A600018461837BD4680BD82B080B5B2B000AFD1
:105A7000786007F1D00181E80C00FFF787FFC7E9E4
:105A80003001D7E9302352EA030102D14FF0FF334E
:105A900001E1FFF79BFFC7E92E0197F8D930002BF2
:105AA0000ED097F8D830002B0AD0D7E93401D7E9C7
:105AB0002E23994208BF904202D26FF00103EAE020
:105AC000D7E93423D7E92E01994208BF904203D287
:105AD000D7E93423C7E92E230123C7F8B43097F858
